Component: ARM Compiler 5.06 update 6 (build 750) Tool: armlink [4d35ed]

==============================================================================

Section Cross References

    startup_stm32f10x_cl.o(STACK) refers (Special) to heapauxi.o(.text) for __use_two_region_memory
    startup_stm32f10x_cl.o(HEAP) refers (Special) to heapauxi.o(.text) for __use_two_region_memory
    startup_stm32f10x_cl.o(RESET) refers (Special) to heapauxi.o(.text) for __use_two_region_memory
    startup_stm32f10x_cl.o(RESET) refers to startup_stm32f10x_cl.o(STACK) for __initial_sp
    startup_stm32f10x_cl.o(RESET) refers to startup_stm32f10x_cl.o(.text) for Reset_Handler
    startup_stm32f10x_cl.o(RESET) refers to stm32f10x_it.o(.text) for NMI_Handler
    startup_stm32f10x_cl.o(RESET) refers to main.o(.text) for SysTick_Handler
    startup_stm32f10x_cl.o(RESET) refers to usartdrive.o(.text) for USART1_IRQHandler
    startup_stm32f10x_cl.o(.text) refers (Special) to heapauxi.o(.text) for __use_two_region_memory
    startup_stm32f10x_cl.o(.text) refers to system_stm32f10x.o(.text) for SystemInit
    startup_stm32f10x_cl.o(.text) refers to __main.o(!!!main) for __main
    startup_stm32f10x_cl.o(.text) refers to startup_stm32f10x_cl.o(HEAP) for Heap_Mem
    startup_stm32f10x_cl.o(.text) refers to startup_stm32f10x_cl.o(STACK) for Stack_Mem
    dbg.o(.text) refers to _printf_pad.o(.text) for _printf_pre_padding
    dbg.o(.text) refers to _printf_percent.o(.ARM.Collect$$_printf_percent$$00000000) for _printf_percent
    dbg.o(.text) refers to _printf_d.o(.ARM.Collect$$_printf_percent$$00000009) for _printf_d
    dbg.o(.text) refers to _printf_dec.o(.text) for _printf_int_dec
    dbg.o(.text) refers to rtc.o(.text) for get_RTCCounter
==============================================================================

Removing Unused input sections from the image.

    Removing core_cm3.o(.emb_text), (32 bytes).
    Removing main.o(.constdata), (9 bytes).
    Removing stm32f10x_can.o(.text), (2544 bytes).
    Removing stm32f10x_cec.o(.text), (288 bytes).
    Removing stm32f10x_crc.o(.text), (72 bytes).
    Removing stm32f10x_dac.o(.text), (396 bytes).
    Removing stm32f10x_dbgmcu.o(.text), (48 bytes).
    Removing stm32f10x_dma.o(.text), (596 bytes).
    Removing stm32f10x_exti.o(.text), (284 bytes).
    Removing stm32f10x_flash.o(.text), (1468 bytes).
    Removing stm32f10x_fsmc.o(.text), (1548 bytes).
    Removing stm32f10x_i2c.o(.text), (1028 bytes).
    Removing stm32f10x_sdio.o(.text), (468 bytes).
    Removing stm32f10x_tim.o(.text), (3610 bytes).
    Removing stm32f10x_wwdg.o(.text), (136 bytes).

15 unused section(s) (total 12527 bytes) removed from the image.

==============================================================================

Image Symbol Table

    Local Symbols

    Symbol Name                              Value     Ov Type        Size  Object(Section)

    ../clib/angel/boardlib.s                 0x00000000   Number         0  boardinit3.o ABSOLUTE
    ../clib/angel/boardlib.s                 0x00000000   Number         0  boardshut.o ABSOLUTE
    ../clib/angel/boardlib.s                 0x00000000   Number         0  boardinit1.o ABSOLUTE
    ../clib/angel/boardlib.s                 0x00000000   Number         0  boardinit2.o ABSOLUTE
    ../clib/angel/handlers.s                 0x00000000   Number         0  __scatter_zi.o ABSOLUTE
    ../clib/angel/handlers.s                 0x00000000   Number         0  __scatter_copy.o ABSOLUTE
    ../clib/angel/kernel.s                   0x00000000   Number         0  rtexit2.o ABSOLUTE
    ../clib/angel/kernel.s                   0x00000000   Number         0  rtexit.o ABSOLUTE
    ../clib/angel/kernel.s                   0x00000000   Number         0  __rtentry4.o ABSOLUTE
    ../clib/angel/kernel.s                   0x00000000   Number         0  __rtentry2.o ABSOLUTE
    ../clib/angel/kernel.s                   0x00000000   Number         0  __rtentry.o ABSOLUTE
    ../clib/angel/rt.s                       0x00000000   Number         0  rt_errno_addr.o ABSOLUTE
    ../clib/angel/rt.s                       0x00000000   Number         0  rt_locale.o ABSOLUTE
    ../clib/angel/rt.s                       0x00000000   Number         0  rt_locale_intlibspace.o ABSOLUTE
    ../clib/angel/rt.s                       0x00000000   Number         0  rt_ctype_table.o ABSOLUTE
    ../clib/angel/rt.s                       0x00000000   Number         0  rt_raise.o ABSOLUTE
    ../clib/angel/rt.s                       0x00000000   Number         0  rt_errno_addr_intlibspace.o ABSOLUTE
    ../clib/angel/scatter.s                  0x00000000   Number         0  __scatter.o ABSOLUTE
    ../clib/angel/startup.s                  0x00000000   Number         0  __main.o ABSOLUTE
    ../clib/angel/sys.s                      0x00000000   Number         0  indicate_semi.o ABSOLUTE
    ../clib/angel/sys.s                      0x00000000   Number         0  libspace.o ABSOLUTE
    ../clib/angel/sys.s                      0x00000000   Number         0  sys_stackheap_outer.o ABSOLUTE
    ../clib/angel/sys.s                      0x00000000   Number         0  use_no_semi.o ABSOLUTE
    ../clib/angel/sys.s                      0x00000000   Number         0  use_no_semi_2.o ABSOLUTE
    ../clib/angel/sysapp.c                   0x00000000   Number         0  sys_wrch.o ABSOLUTE
    ../clib/angel/sysapp.c                   0x00000000   Number         0  sys_command.o ABSOLUTE
    ../clib/armsys.c                         0x00000000   Number         0  argv_veneer.o ABSOLUTE
    ../clib/armsys.c                         0x00000000   Number         0  argv_veneer.o ABSOLUTE
    ../clib/armsys.c                         0x00000000   Number         0  _get_argv_nomalloc.o ABSOLUTE
    ../clib/armsys.c                         0x00000000   Number         0  no_argv.o ABSOLUTE
    ../clib/bigflt.c                         0x00000000   Number         0  bigflt0.o ABSOLUTE
    ../clib/btod.s                           0x00000000   Number         0  btod.o ABSOLUTE
    ../clib/heapalloc.c                      0x00000000   Number         0  hrguard.o ABSOLUTE
    ../clib/heapaux.c                        0x00000000   Number         0  heapauxi.o ABSOLUTE
    ../clib/libinit.s                        0x00000000   Number         0  libinit.o ABSOLUTE
    ../clib/libinit.s                        0x00000000   Number         0  libshutdown2.o ABSOLUTE
    ../clib/libinit.s                        0x00000000   Number         0  libinit2.o ABSOLUTE
    ../clib/libinit.s                        0x00000000   Number         0  libshutdown.o ABSOLUTE
    ../clib/locale.c                         0x00000000   Number         0  _wcrtomb.o ABSOLUTE
    ../clib/locale.s                         0x00000000   Number         0  lc_ctype_c.o ABSOLUTE
    ../clib/locale.s                         0x00000000   Number         0  lc_numeric_c.o ABSOLUTE
    ../clib/longlong.s                       0x00000000   Number         0  lludiv10.o ABSOLUTE
    ../clib/memcpset.s                       0x00000000   Number         0  rt_memclr_w.o ABSOLUTE
    ../clib/memcpset.s                       0x00000000   Number         0  rt_memcpy_v6.o ABSOLUTE
    ../clib/memcpset.s                       0x00000000   Number         0  strcmpv7m.o ABSOLUTE
    ../clib/memcpset.s                       0x00000000   Number         0  rt_memcpy_w.o ABSOLUTE
    ../clib/misc.s                           0x00000000   Number         0  printf_stubs.o ABSOLUTE
    ../clib/printf.c                         0x00000000   Number         0  _sputc.o ABSOLUTE
    ../clib/printf.c                         0x00000000   Number         0  noretval__2printf.o ABSOLUTE
    ../clib/printf.c                         0x00000000   Number         0  _printf_char_file.o ABSOLUTE
    ../clib/printf.c                         0x00000000   Number         0  __2sprintf.o ABSOLUTE
    ../clib/printf.c                         0x00000000   Number         0  _printf_pad.o ABSOLUTE
    ../clib/printf.c                         0x00000000   Number         0  noretval__2sprintf.o ABSOLUTE
    ../clib/printf.c                         0x00000000   Number         0  __2printf.o ABSOLUTE
    ../clib/printf.c                         0x00000000   Number         0  _printf_fp_infnan.o ABSOLUTE
    ../clib/printf.c                         0x00000000   Number         0  __printf_nopercent.o ABSOLUTE
    ../clib/printf.c                         0x00000000   Number         0  _printf_char_common.o ABSOLUTE
    ../clib/printf.c                         0x00000000   Number         0  _printf_dec.o ABSOLUTE
    ../clib/printf.c                         0x00000000   Number         0  c89vsprintf.o ABSOLUTE
    ../clib/printf.c                         0x00000000   Number         0  _printf_truncate.o ABSOLUTE
    ../clib/printf.c                         0x00000000   Number         0  _printf_oct_int_ll.o ABSOLUTE
    ../clib/printf.c                         0x00000000   Number         0  _printf_intcommon.o ABSOLUTE
    ../clib/printf.c                         0x00000000   Number         0  _printf_oct_int.o ABSOLUTE
    ../clib/printf.c                         0x00000000   Number         0  _printf_charcount.o ABSOLUTE
    ../clib/printf.c                         0x00000000   Number         0  _printf_oct_ll.o ABSOLUTE
    ../clib/printf.c                         0x00000000   Number         0  _printf_longlong_dec.o ABSOLUTE
    ../clib/printf.c                         0x00000000   Number         0  _printf_hex_int.o ABSOLUTE
    ../clib/printf.c                         0x00000000   Number         0  _printf_hex_int_ll.o ABSOLUTE
    ../clib/printf.c                         0x00000000   Number         0  _printf_hex_ptr.o ABSOLUTE
    ../clib/printf.c                         0x00000000   Number         0  _printf_hex_int_ptr.o ABSOLUTE
    ../clib/printf.c                         0x00000000   Number         0  _printf_hex_ll_ptr.o ABSOLUTE
    ../clib/printf.c                         0x00000000   Number         0  _printf_hex_int_ll_ptr.o ABSOLUTE
    ../clib/printf.c                         0x00000000   Number         0  _printf_fp_dec.o ABSOLUTE
    ../clib/printf.c                         0x00000000   Number         0  _printf_wchar.o ABSOLUTE
    ../clib/printf.c                         0x00000000   Number         0  _printf_wctomb.o ABSOLUTE
    ../clib/printf.c                         0x00000000   Number         0  _printf_str.o ABSOLUTE
    ../clib/printf.c                         0x00000000   Number         0  __printf_flags.o ABSOLUTE
    ../clib/printf.c                         0x00000000   Number         0  __printf_ss.o ABSOLUTE
    ../clib/printf.c                         0x00000000   Number         0  __printf_flags_ss.o ABSOLUTE
    ../clib/printf.c                         0x00000000   Number         0  __printf_wp.o ABSOLUTE
    ../clib/printf.c                         0x00000000   Number         0  __printf.o ABSOLUTE
    ../clib/printf.c                         0x00000000   Number         0  __printf_flags_wp.o ABSOLUTE
    ../clib/printf.c                         0x00000000   Number         0  __printf_ss_wp.o ABSOLUTE
    ../clib/printf.c                         0x00000000   Number         0  __printf_flags_ss_wp.o ABSOLUTE
    ../clib/printf.c                         0x00000000   Number         0  _printf_char.o ABSOLUTE
    ../clib/printf.c                         0x00000000   Number         0  _printf_hex_ll.o ABSOLUTE
    ../clib/printf_percent.s                 0x00000000   Number         0  _printf_llo.o ABSOLUTE
    ../clib/printf_percent.s                 0x00000000   Number         0  _printf_ls.o ABSOLUTE
    ../clib/printf_percent.s                 0x00000000   Number         0  _printf_lc.o ABSOLUTE
    ../clib/printf_percent.s                 0x00000000   Number         0  _printf_l.o ABSOLUTE
    ../clib/printf_percent.s                 0x00000000   Number         0  _printf_ll.o ABSOLUTE
    ../clib/printf_percent.s                 0x00000000   Number         0  _printf_llu.o ABSOLUTE
    ../clib/printf_percent.s                 0x00000000   Number         0  _printf_lld.o ABSOLUTE
    ../clib/printf_percent.s                 0x00000000   Number         0  _printf_lli.o ABSOLUTE
    ../clib/printf_percent.s                 0x00000000   Number         0  _printf_p.o ABSOLUTE
    ../clib/printf_percent.s                 0x00000000   Number         0  _printf_percent_end.o ABSOLUTE
    ../clib/printf_percent.s                 0x00000000   Number         0  _printf_a.o ABSOLUTE
    ../clib/printf_percent.s                 0x00000000   Number         0  _printf_g.o ABSOLUTE
    ../clib/printf_percent.s                 0x00000000   Number         0  _printf_e.o ABSOLUTE
    ../clib/printf_percent.s                 0x00000000   Number         0  _printf_f.o ABSOLUTE
    ../clib/printf_percent.s                 0x00000000   Number         0  _printf_u.o ABSOLUTE
    ../clib/printf_percent.s                 0x00000000   Number         0  _printf_i.o ABSOLUTE
    ../clib/printf_percent.s                 0x00000000   Number         0  _printf_o.o ABSOLUTE
    ../clib/printf_percent.s                 0x00000000   Number         0  _printf_x.o ABSOLUTE
    ../clib/printf_percent.s                 0x00000000   Number         0  _printf_n.o ABSOLUTE
    ../clib/printf_percent.s                 0x00000000   Number         0  _printf_s.o ABSOLUTE
    ../clib/printf_percent.s                 0x00000000   Number         0  _printf_c.o ABSOLUTE
    ../clib/printf_percent.s                 0x00000000   Number         0  _printf_llx.o ABSOLUTE
    ../clib/printf_percent.s                 0x00000000   Number         0  _printf_d.o ABSOLUTE
    ../clib/printf_percent.s                 0x00000000   Number         0  _printf_percent.o ABSOLUTE
    ../clib/scanf.c                          0x00000000   Number         0  _strtoul.o ABSOLUTE
    ../clib/scanf.c                          0x00000000   Number         0  _chval.o ABSOLUTE
    ../clib/scanf.c                          0x00000000   Number         0  atoi.o ABSOLUTE
    ../clib/scanf.c                          0x00000000   Number         0  strtol.o ABSOLUTE
    ../clib/signal.c                         0x00000000   Number         0  defsig_exit.o ABSOLUTE
    ../clib/signal.c                         0x00000000   Number         0  defsig_fpe_inner.o ABSOLUTE
    ../clib/signal.c                         0x00000000   Number         0  defsig_abrt_inner.o ABSOLUTE
    ../clib/signal.c                         0x00000000   Number         0  defsig_rtmem_outer.o ABSOLUTE
    ../clib/signal.c                         0x00000000   Number         0  __raise.o ABSOLUTE
    ../clib/signal.c                         0x00000000   Number         0  defsig_rtmem_formal.o ABSOLUTE
    ../clib/signal.c                         0x00000000   Number         0  defsig_rtred_inner.o ABSOLUTE
    ../clib/signal.c                         0x00000000   Number         0  defsig_general.o ABSOLUTE
    ../clib/signal.c                         0x00000000   Number         0  defsig_other.o ABSOLUTE
    ../clib/signal.c                         0x00000000   Number         0  defsig_segv_inner.o ABSOLUTE
    ../clib/signal.c                         0x00000000   Number         0  defsig_cppl_inner.o ABSOLUTE
    ../clib/signal.c                         0x00000000   Number         0  defsig_pvfn_inner.o ABSOLUTE
    ../clib/signal.c                         0x00000000   Number         0  defsig_stak_inner.o ABSOLUTE
    ../clib/signal.c                         0x00000000   Number         0  defsig_rtmem_inner.o ABSOLUTE
    ../clib/signal.s                         0x00000000   Number         0  defsig.o ABSOLUTE
    ../clib/stdio.c                          0x00000000   Number         0  ferror.o ABSOLUTE
    ../clib/stdio.c                          0x00000000   Number         0  ferror_locked.o ABSOLUTE
    ../clib/stdlib.c                         0x00000000   Number         0  exit.o ABSOLUTE
    ../clib/string.c                         0x00000000   Number         0  strstr.o ABSOLUTE
    ../clib/string.c                         0x00000000   Number         0  memcmp.o ABSOLUTE
    ../clib/string.c                         0x00000000   Number         0  strcpy.o ABSOLUTE
    ../clib/string.c                         0x00000000   Number         0  strlen.o ABSOLUTE
    ../fplib/daddsub.s                       0x00000000   Number         0  daddsub_clz.o ABSOLUTE
    ../fplib/dfixu.s                         0x00000000   Number         0  dfixu.o ABSOLUTE
    ../fplib/dflt.s                          0x00000000   Number         0  dflt_clz.o ABSOLUTE
    ../fplib/dmul.s                          0x00000000   Number         0  dmul.o ABSOLUTE
    ../fplib/dnaninf.s                       0x00000000   Number         0  dnaninf.o ABSOLUTE
    ../fplib/dretinf.s                       0x00000000   Number         0  dretinf.o ABSOLUTE
    ../fplib/fpinit.s                        0x00000000   Number         0  fpinit.o ABSOLUTE
    ../fplib/istatus.s                       0x00000000   Number         0  istatus.o ABSOLUTE
    ../fplib/printf1.s                       0x00000000   Number         0  printf1.o ABSOLUTE
    ../fplib/usenofp.s                       0x00000000   Number         0  usenofp.o ABSOLUTE
    ../mathlib/fpclassify.c                  0x00000000   Number         0  fpclassify.o ABSOLUTE
    ..\\src\\core_cm3.c                      0x00000000   Number         0  core_cm3.o ABSOLUTE
    ..\\src\\sys.c                           0x00000000   Number         0  sys.o ABSOLUTE
    ..\src\BT_Driver.c                       0x00000000   Number         0  bt_driver.o ABSOLUTE
    ..\src\RTC.c                             0x00000000   Number         0  rtc.o ABSOLUTE
    ..\src\core_cm3.c                        0x00000000   Number         0  core_cm3.o ABSOLUTE
    ..\src\dbg.c                             0x00000000   Number         0  dbg.o ABSOLUTE
    ..\src\led.c                             0x00000000   Number         0  led.o ABSOLUTE
    ..\src\main.c                            0x00000000   Number         0  main.o ABSOLUTE
    ..\src\mc3230.c                          0x00000000   Number         0  mc3230.o ABSOLUTE
    ..\src\misc.c                            0x00000000   Number         0  misc.o ABSOLUTE
    ..\src\startup_stm32f10x_cl.s            0x00000000   Number         0  startup_stm32f10x_cl.o ABSOLUTE
    ..\src\stm32f10x_adc.c                   0x00000000   Number         0  stm32f10x_adc.o ABSOLUTE
    ..\src\stm32f10x_bkp.c                   0x00000000   Number         0  stm32f10x_bkp.o ABSOLUTE
    ..\src\stm32f10x_can.c                   0x00000000   Number         0  stm32f10x_can.o ABSOLUTE
    ..\src\stm32f10x_cec.c                   0x00000000   Number         0  stm32f10x_cec.o ABSOLUTE
    ..\src\stm32f10x_crc.c                   0x00000000   Number         0  stm32f10x_crc.o ABSOLUTE
    ..\src\stm32f10x_dac.c                   0x00000000   Number         0  stm32f10x_dac.o ABSOLUTE
    ..\src\stm32f10x_dbgmcu.c                0x00000000   Number         0  stm32f10x_dbgmcu.o ABSOLUTE
    ..\src\stm32f10x_dma.c                   0x00000000   Number         0  stm32f10x_dma.o ABSOLUTE
    ..\src\stm32f10x_exti.c                  0x00000000   Number         0  stm32f10x_exti.o ABSOLUTE
    ..\src\stm32f10x_flash.c                 0x00000000   Number         0  stm32f10x_flash.o ABSOLUTE
    ..\src\stm32f10x_fsmc.c                  0x00000000   Number         0  stm32f10x_fsmc.o ABSOLUTE
    ..\src\stm32f10x_gpio.c                  0x00000000   Number         0  stm32f10x_gpio.o ABSOLUTE
    ..\src\stm32f10x_i2c.c                   0x00000000   Number         0  stm32f10x_i2c.o ABSOLUTE
    ..\src\stm32f10x_it.c                    0x00000000   Number         0  stm32f10x_it.o ABSOLUTE
    ..\src\stm32f10x_iwdg.c                  0x00000000   Number         0  stm32f10x_iwdg.o ABSOLUTE
    ..\src\stm32f10x_pwr.c                   0x00000000   Number         0  stm32f10x_pwr.o ABSOLUTE
    ..\src\stm32f10x_rcc.c                   0x00000000   Number         0  stm32f10x_rcc.o ABSOLUTE
    ..\src\stm32f10x_rtc.c                   0x00000000   Number         0  stm32f10x_rtc.o ABSOLUTE
    ..\src\stm32f10x_sdio.c                  0x00000000   Number         0  stm32f10x_sdio.o ABSOLUTE
    ..\src\stm32f10x_spi.c                   0x00000000   Number         0  stm32f10x_spi.o ABSOLUTE
    ..\src\stm32f10x_tim.c                   0x00000000   Number         0  stm32f10x_tim.o ABSOLUTE
    ..\src\stm32f10x_usart.c                 0x00000000   Number         0  stm32f10x_usart.o ABSOLUTE
    ..\src\stm32f10x_wwdg.c                  0x00000000   Number         0  stm32f10x_wwdg.o ABSOLUTE
    ..\src\sys.c                             0x00000000   Number         0  sys.o ABSOLUTE
    ..\src\system_stm32f10x.c                0x00000000   Number         0  system_stm32f10x.o ABSOLUTE
    ..\src\usartDrive.c                      0x00000000   Number         0  usartdrive.o ABSOLUTE
    ..\src\w25xx.c                           0x00000000   Number         0  w25xx.o ABSOLUTE
    dc.s                                     0x00000000   Number         0  dc.o ABSOLUTE
    RESET                                    0x08002800   Section      336  startup_stm32f10x_cl.o(RESET)
    !!!main                                  0x08002950   Section        8  __main.o(!!!main)
    !!!scatter                               0x08002958   Section       52  __scatter.o(!!!scatter)
    !!handler_copy                           0x0800298c   Section       26  __scatter_copy.o(!!handler_copy)
    !!handler_zi                             0x080029a8   Section       28  __scatter_zi.o(!!handler_zi)
    .ARM.Collect$$_printf_percent$$00000000  0x080029c4   Section        0  _printf_percent.o(.ARM.Collect$$_printf_percent$$00000000)
    .ARM.Collect$$_printf_percent$$00000001  0x080029c4   Section        6  _printf_n.o(.ARM.Collect$$_printf_percent$$00000001)
    .ARM.Collect$$_printf_percent$$00000002  0x080029ca   Section        6  _printf_p.o(.ARM.Collect$$_printf_percent$$00000002)
    .ARM.Collect$$_printf_percent$$00000003  0x080029d0   Section        6  _printf_f.o(.ARM.Collect$$_printf_percent$$00000003)
    .ARM.Collect$$_printf_percent$$00000004  0x080029d6   Section        6  _printf_e.o(.ARM.Collect$$_printf_percent$$00000004)
    .ARM.Collect$$_printf_percent$$00000005  0x080029dc   Section        6  _printf_g.o(.ARM.Collect$$_printf_percent$$00000005)
    .ARM.Collect$$_printf_percent$$00000006  0x080029e2   Section        6  _printf_a.o(.ARM.Collect$$_printf_percent$$00000006)
    .ARM.Collect$$_printf_percent$$00000007  0x080029e8   Section       10  _printf_ll.o(.ARM.Collect$$_printf_percent$$00000007)
    .ARM.Collect$$_printf_percent$$00000008  0x080029f2   Section        6  _printf_i.o(.ARM.Collect$$_printf_percent$$00000008)
    .ARM.Collect$$_printf_percent$$00000009  0x080029f8   Section        6  _printf_d.o(.ARM.Collect$$_printf_percent$$00000009)
    .ARM.Collect$$_printf_percent$$0000000A  0x080029fe   Section        6  _printf_u.o(.ARM.Collect$$_printf_percent$$0000000A)
    .ARM.Collect$$_printf_percent$$0000000B  0x08002a04   Section        6  _printf_o.o(.ARM.Collect$$_printf_percent$$0000000B)
    .ARM.Collect$$_printf_percent$$0000000C  0x08002a0a   Section        6  _printf_x.o(.ARM.Collect$$_printf_percent$$0000000C)
    .ARM.Collect$$_printf_percent$$0000000D  0x08002a10   Section        6  _printf_lli.o(.ARM.Collect$$_printf_percent$$0000000D)
    .ARM.Collect$$_printf_percent$$0000000E  0x08002a16   Section        6  _printf_lld.o(.ARM.Collect$$_printf_percent$$0000000E)
    .ARM.Collect$$_printf_percent$$0000000F  0x08002a1c   Section        6  _printf_llu.o(.ARM.Collect$$_printf_percent$$0000000F)
    .ARM.Collect$$_printf_percent$$00000010  0x08002a22   Section        6  _printf_llo.o(.ARM.Collect$$_printf_percent$$00000010)
    .ARM.Collect$$_printf_percent$$00000011  0x08002a28   Section        6  _printf_llx.o(.ARM.Collect$$_printf_percent$$00000011)
    .ARM.Collect$$_printf_percent$$00000012  0x08002a2e   Section       10  _printf_l.o(.ARM.Collect$$_printf_percent$$00000012)
    .ARM.Collect$$_printf_percent$$00000013  0x08002a38   Section        6  _printf_c.o(.ARM.Collect$$_printf_percent$$00000013)
    .ARM.Collect$$_printf_percent$$00000014  0x08002a3e   Section        6  _printf_s.o(.ARM.Collect$$_printf_percent$$00000014)
    .ARM.Collect$$_printf_percent$$00000015  0x08002a44   Section        6  _printf_lc.o(.ARM.Collect$$_printf_percent$$00000015)
    .ARM.Collect$$_printf_percent$$00000016  0x08002a4a   Section        6  _printf_ls.o(.ARM.Collect$$_printf_percent$$00000016)
    .ARM.Collect$$_printf_percent$$00000017  0x08002a50   Section        4  _printf_percent_end.o(.ARM.Collect$$_printf_percent$$00000017)
    .ARM.Collect$$libinit$$00000000          0x08002a54   Section        2  libinit.o(.ARM.Collect$$libinit$$00000000)
    .ARM.Collect$$libinit$$00000002          0x08002a56   Section        0  libinit2.o(.ARM.Collect$$libinit$$00000002)
    .ARM.Collect$$libinit$$00000004          0x08002a56   Section        0  libinit2.o(.ARM.Collect$$libinit$$00000004)
    .ARM.Collect$$libinit$$0000000A          0x08002a56   Section        0  libinit2.o(.ARM.Collect$$libinit$$0000000A)
    .ARM.Collect$$libinit$$0000000C          0x08002a56   Section        0  libinit2.o(.ARM.Collect$$libinit$$0000000C)
    .ARM.Collect$$libinit$$0000000E          0x08002a56   Section        0  libinit2.o(.ARM.Collect$$libinit$$0000000E)
    .ARM.Collect$$libinit$$0000000F          0x08002a56   Section        6  libinit2.o(.ARM.Collect$$libinit$$0000000F)
    .ARM.Collect$$libinit$$00000011          0x08002a5c   Section        0  libinit2.o(.ARM.Collect$$libinit$$00000011)
    .ARM.Collect$$libinit$$00000012          0x08002a5c   Section       12  libinit2.o(.ARM.Collect$$libinit$$00000012)
    .ARM.Collect$$libinit$$00000013          0x08002a68   Section        0  libinit2.o(.ARM.Collect$$libinit$$00000013)
    .ARM.Collect$$libinit$$00000015          0x08002a68   Section        0  libinit2.o(.ARM.Collect$$libinit$$00000015)
    .ARM.Collect$$libinit$$00000016          0x08002a68   Section       10  libinit2.o(.ARM.Collect$$libinit$$00000016)
    .ARM.Collect$$libinit$$00000017          0x08002a72   Section        0  libinit2.o(.ARM.Collect$$libinit$$00000017)
    .ARM.Collect$$libinit$$00000019          0x08002a72   Section        0  libinit2.o(.ARM.Collect$$libinit$$00000019)
    .ARM.Collect$$libinit$$0000001B          0x08002a72   Section        0  libinit2.o(.ARM.Collect$$libinit$$0000001B)
    .ARM.Collect$$libinit$$0000001D          0x08002a72   Section        0  libinit2.o(.ARM.Collect$$libinit$$0000001D)
    .ARM.Collect$$libinit$$0000001F          0x08002a72   Section        0  libinit2.o(.ARM.Collect$$libinit$$0000001F)
    .ARM.Collect$$libinit$$00000021          0x08002a72   Section        0  libinit2.o(.ARM.Collect$$libinit$$00000021)
    .ARM.Collect$$libinit$$00000023          0x08002a72   Section        0  libinit2.o(.ARM.Collect$$libinit$$00000023)
    .ARM.Collect$$libinit$$00000025          0x08002a72   Section        0  libinit2.o(.ARM.Collect$$libinit$$00000025)
    .ARM.Collect$$libinit$$0000002C          0x08002a72   Section        0  libinit2.o(.ARM.Collect$$libinit$$0000002C)
    .ARM.Collect$$libinit$$0000002E          0x08002a72   Section        0  libinit2.o(.ARM.Collect$$libinit$$0000002E)
    .ARM.Collect$$libinit$$00000030          0x08002a72   Section        0  libinit2.o(.ARM.Collect$$libinit$$00000030)
    .ARM.Collect$$libinit$$00000032          0x08002a72   Section        0  libinit2.o(.ARM.Collect$$libinit$$00000032)
    .ARM.Collect$$libinit$$00000033          0x08002a72   Section        2  libinit2.o(.ARM.Collect$$libinit$$00000033)
    .ARM.Collect$$libshutdown$$00000000      0x08002a74   Section        2  libshutdown.o(.ARM.Collect$$libshutdown$$00000000)
    .ARM.Collect$$libshutdown$$00000002      0x08002a76   Section        0  libshutdown2.o(.ARM.Collect$$libshutdown$$00000002)
    .ARM.Collect$$libshutdown$$00000004      0x08002a76   Section        0  libshutdown2.o(.ARM.Collect$$libshutdown$$00000004)
    .ARM.Collect$$libshutdown$$00000007      0x08002a76   Section        0  libshutdown2.o(.ARM.Collect$$libshutdown$$00000007)
    .ARM.Collect$$libshutdown$$0000000A      0x08002a76   Section        0  libshutdown2.o(.ARM.Collect$$libshutdown$$0000000A)
    .ARM.Collect$$libshutdown$$0000000C      0x08002a76   Section        0  libshutdown2.o(.ARM.Collect$$libshutdown$$0000000C)
    .ARM.Collect$$libshutdown$$0000000F      0x08002a76   Section        0  libshutdown2.o(.ARM.Collect$$libshutdown$$0000000F)
    .ARM.Collect$$libshutdown$$00000010      0x08002a76   Section        2  libshutdown2.o(.ARM.Collect$$libshutdown$$00000010)
    .ARM.Collect$$rtentry$$00000000          0x08002a78   Section        0  __rtentry.o(.ARM.Collect$$rtentry$$00000000)
    .ARM.Collect$$rtentry$$00000002          0x08002a78   Section        0  __rtentry2.o(.ARM.Collect$$rtentry$$00000002)
    .ARM.Collect$$rtentry$$00000004          0x08002a78   Section        6  __rtentry4.o(.ARM.Collect$$rtentry$$00000004)
    .ARM.Collect$$rtentry$$00000009          0x08002a7e   Section        0  __rtentry2.o(.ARM.Collect$$rtentry$$00000009)
    .ARM.Collect$$rtentry$$0000000A          0x08002a7e   Section        4  __rtentry2.o(.ARM.Collect$$rtentry$$0000000A)
    .ARM.Collect$$rtentry$$0000000C          0x08002a82   Section        0  __rtentry2.o(.ARM.Collect$$rtentry$$0000000C)
    .ARM.Collect$$rtentry$$0000000D          0x08002a82   Section        8  __rtentry2.o(.ARM.Collect$$rtentry$$0000000D)
    .ARM.Collect$$rtexit$$00000000           0x08002a8a   Section        2  rtexit.o(.ARM.Collect$$rtexit$$00000000)
    .ARM.Collect$$rtexit$$00000002           0x08002a8c   Section        0  rtexit2.o(.ARM.Collect$$rtexit$$00000002)
    .ARM.Collect$$rtexit$$00000003           0x08002a8c   Section        4  rtexit2.o(.ARM.Collect$$rtexit$$00000003)
    .ARM.Collect$$rtexit$$00000004           0x08002a90   Section        6  rtexit2.o(.ARM.Collect$$rtexit$$00000004)
    .emb_text                                0x08002a98   Section        2  sys.o(.emb_text)
    .text                                    0x08002a9c   Section       64  startup_stm32f10x_cl.o(.text)
    .text                                    0x08002adc   Section        0  dbg.o(.text)
    .text                                    0x08002d60   Section        0  led.o(.text)
    .text                                    0x08002f68   Section        0  stm32f10x_iwdg.o(.text)
    .text                                    0x08002fa8   Section        2  use_no_semi_2.o(.text)
    .text                                    0x08002fac   Section        0  c89vsprintf.o(.text)
    .text                                    0x08002fd0   Section        0  __2printf.o(.text)
    .text                                    0x08002fe8   Section        0  heapauxi.o(.text)
    .text                                    0x08002fee   Section        2  use_no_semi.o(.text)
    .text                                    0x08002ff0   Section        8  rt_errno_addr_intlibspace.o(.text)
    .text                                    0x08002ff8   Section        8  libspace.o(.text)
    .ARM.__AT_0x08003000                     0x08003000   Section       64  main.o(.ARM.__AT_0x08003000)
    .text                                    0x08003040   Section        0  main.o(.text)
    .text                                    0x0800336c   Section        0  misc.o(.text)
    .text                                    0x08003448   Section        0  rtc.o(.text)
    .text                                    0x080038d0   Section        0  stm32f10x_adc.o(.text)
    .text                                    0x08003d20   Section        0  stm32f10x_bkp.o(.text)
    .text                                    0x08003de4   Section        0  stm32f10x_gpio.o(.text)
    .text                                    0x08004140   Section        0  stm32f10x_it.o(.text)
    .text                                    0x08004730   Section        0  stm32f10x_pwr.o(.text)
    .text                                    0x080047fc   Section        0  stm32f10x_rcc.o(.text)
    .text                                    0x08004cfc   Section        0  stm32f10x_rtc.o(.text)
    .text                                    0x08004e44   Section        0  stm32f10x_spi.o(.text)
    .text                                    0x08005198   Section        0  stm32f10x_usart.o(.text)
    .text                                    0x080055a0   Section        0  system_stm32f10x.o(.text)
    SetSysClockTo72                          0x080055a1   Thumb Code   264  system_stm32f10x.o(.text)
    SetSysClock                              0x080056a9   Thumb Code     8  system_stm32f10x.o(.text)
    .text                                    0x08005820   Section        0  usartdrive.o(.text)
    .text                                    0x08005c98   Section        0  w25xx.o(.text)
    w25xx_readStatus                         0x08005da1   Thumb Code    40  w25xx.o(.text)
    w25xx_waitTmo                            0x08005dc9   Thumb Code     2  w25xx.o(.text)
    w25xx_waitBusyClr                        0x08005dcb   Thumb Code    52  w25xx.o(.text)
    w25xx_waitWelSet                         0x08005dff   Thumb Code    56  w25xx.o(.text)
    w25xx_waitWelClr                         0x08005e37   Thumb Code    58  w25xx.o(.text)
    w25xx_writeEnable                        0x08005e71   Thumb Code    34  w25xx.o(.text)
    w25xx_writeDisable                       0x08005e93   Thumb Code    34  w25xx.o(.text)
    .text                                    0x08006164   Section        0  bt_driver.o(.text)
    .text                                    0x08007408   Section        0  sys.o(.text)
    .text                                    0x08007760   Section        0  __2sprintf.o(.text)
    .text                                    0x0800778c   Section        0  _printf_pad.o(.text)
    .text                                    0x080077da   Section        0  _printf_str.o(.text)
    .text                                    0x0800782c   Section        0  _printf_dec.o(.text)
    .text                                    0x080078a4   Section        0  _printf_hex_int_ll_ptr.o(.text)
    _printf_hex_common                       0x080078a5   Thumb Code     0  _printf_hex_int_ll_ptr.o(.text)
    .text                                    0x08007938   Section        0  __printf_flags_ss_wp.o(.text)
    .text                                    0x08007ac0   Section        0  atoi.o(.text)
    .text                                    0x08007ada   Section        0  strstr.o(.text)
    .text                                    0x08007afe   Section        0  memcmp.o(.text)
    .text                                    0x08007b56   Section        0  strcpy.o(.text)
    .text                                    0x08007b9e   Section        0  strlen.o(.text)
    .text                                    0x08007bdc   Section      138  rt_memcpy_v6.o(.text)
    .text                                    0x08007c66   Section       78  rt_memclr_w.o(.text)
    .text                                    0x08007cb4   Section        0  _printf_truncate.o(.text)
    .text                                    0x08007cd8   Section        0  _printf_intcommon.o(.text)
    .text                                    0x08007d8a   Section        0  _printf_charcount.o(.text)
    .text                                    0x08007db4   Section        0  _printf_char_common.o(.text)
    _printf_input_char                       0x08007db5   Thumb Code    10  _printf_char_common.o(.text)
    .text                                    0x08007de4   Section        0  _sputc.o(.text)
    .text                                    0x08007dee   Section        0  _printf_char.o(.text)
    .text                                    0x08007e1c   Section        0  _printf_char_file.o(.text)
    .text                                    0x08007e40   Section        0  _printf_wctomb.o(.text)
    .text                                    0x08007efc   Section        0  _printf_longlong_dec.o(.text)
    .text                                    0x08007f78   Section        0  _printf_oct_int_ll.o(.text)
    _printf_longlong_oct_internal            0x08007f79   Thumb Code     0  _printf_oct_int_ll.o(.text)
    .text                                    0x08007fe8   Section        0  strtol.o(.text)
    .text                                    0x08008058   Section      100  rt_memcpy_w.o(.text)
    .text                                    0x080080bc   Section       16  rt_ctype_table.o(.text)
    .text                                    0x080080cc   Section      138  lludiv10.o(.text)
    .text                                    0x08008156   Section        0  _printf_fp_dec.o(.text)
    _fp_digits                               0x08008159   Thumb Code   432  _printf_fp_dec.o(.text)
    .text                                    0x08008574   Section        0  _printf_wchar.o(.text)
    .text                                    0x080085a0   Section        0  _strtoul.o(.text)
    .text                                    0x0800863e   Section        0  ferror.o(.text)
    .text                                    0x08008646   Section        0  _wcrtomb.o(.text)
    .text                                    0x08008686   Section       74  sys_stackheap_outer.o(.text)
    .text                                    0x080086d0   Section        8  rt_locale_intlibspace.o(.text)
    .text                                    0x080086d8   Section        0  _printf_fp_infnan.o(.text)
    .text                                    0x08008758   Section        0  _chval.o(.text)
    .text                                    0x08008774   Section        0  bigflt0.o(.text)
    .text                                    0x08008858   Section        0  exit.o(.text)
    .text                                    0x0800886c   Section      128  strcmpv7m.o(.text)
    CL$$btod_d2e                             0x080088ec   Section       62  btod.o(CL$$btod_d2e)
    CL$$btod_d2e_denorm_low                  0x0800892a   Section       70  btod.o(CL$$btod_d2e_denorm_low)
    CL$$btod_d2e_norm_op1                    0x08008970   Section       96  btod.o(CL$$btod_d2e_norm_op1)
    CL$$btod_div_common                      0x080089d0   Section      824  btod.o(CL$$btod_div_common)
    CL$$btod_e2e                             0x08008d08   Section      220  btod.o(CL$$btod_e2e)
    CL$$btod_ediv                            0x08008de4   Section       42  btod.o(CL$$btod_ediv)
    CL$$btod_emul                            0x08008e0e   Section       42  btod.o(CL$$btod_emul)
    CL$$btod_mult_common                     0x08008e38   Section      580  btod.o(CL$$btod_mult_common)
    i.__ARM_fpclassify                       0x0800907c   Section        0  fpclassify.o(i.__ARM_fpclassify)
    i._is_digit                              0x080090a4   Section        0  __printf_wp.o(i._is_digit)
    locale$$code                             0x080090b4   Section       44  lc_ctype_c.o(locale$$code)
    locale$$code                             0x080090e0   Section       44  lc_numeric_c.o(locale$$code)
    x$fpl$dadd                               0x0800910c   Section      336  daddsub_clz.o(x$fpl$dadd)
    _dadd1                                   0x0800911d   Thumb Code     0  daddsub_clz.o(x$fpl$dadd)
    x$fpl$dfixu                              0x0800925c   Section       90  dfixu.o(x$fpl$dfixu)
    x$fpl$dfltu                              0x080092b6   Section       38  dflt_clz.o(x$fpl$dfltu)
    x$fpl$dmul                               0x080092dc   Section      340  dmul.o(x$fpl$dmul)
    x$fpl$dnaninf                            0x08009430   Section      156  dnaninf.o(x$fpl$dnaninf)
    x$fpl$dretinf                            0x080094cc   Section       12  dretinf.o(x$fpl$dretinf)
    x$fpl$dsub                               0x080094d8   Section      468  daddsub_clz.o(x$fpl$dsub)
    _dsub1                                   0x080094e9   Thumb Code     0  daddsub_clz.o(x$fpl$dsub)
    x$fpl$printf1                            0x080096ac   Section        4  printf1.o(x$fpl$printf1)
    .constdata                               0x080096b0   Section       12  rtc.o(.constdata)
    x$fpl$usenofp                            0x080096b0   Section        0  usenofp.o(x$fpl$usenofp)
    rtc_days_in_month                        0x080096b0   Data          12  rtc.o(.constdata)
    .constdata                               0x080096bc   Section        5  bt_driver.o(.constdata)
    btzyCommandHead                          0x080096bc   Data           5  bt_driver.o(.constdata)
    .constdata                               0x080096c1   Section       40  _printf_hex_int_ll_ptr.o(.constdata)
    uc_hextab                                0x080096c1   Data          20  _printf_hex_int_ll_ptr.o(.constdata)
    lc_hextab                                0x080096d5   Data          20  _printf_hex_int_ll_ptr.o(.constdata)
    .constdata                               0x080096e9   Section       17  __printf_flags_ss_wp.o(.constdata)
    maptable                                 0x080096e9   Data          17  __printf_flags_ss_wp.o(.constdata)
    .constdata                               0x080096fc   Section        8  _printf_wctomb.o(.constdata)
    initial_mbstate                          0x080096fc   Data           8  _printf_wctomb.o(.constdata)
    .constdata                               0x08009704   Section      148  bigflt0.o(.constdata)
    tenpwrs_x                                0x08009704   Data          60  bigflt0.o(.constdata)
    tenpwrs_i                                0x08009740   Data          64  bigflt0.o(.constdata)
    .conststring                             0x08009798   Section      903  dbg.o(.conststring)
    .conststring                             0x08009b20   Section      133  main.o(.conststring)
    locale$$data                             0x08009bc8   Section      272  lc_ctype_c.o(locale$$data)
    __lcctype_c_name                         0x08009bcc   Data           2  lc_ctype_c.o(locale$$data)
    __lcctype_c_start                        0x08009bd4   Data           0  lc_ctype_c.o(locale$$data)
    locale$$data                             0x08009cd8   Section       28  lc_numeric_c.o(locale$$data)
    __lcctype_c_end                          0x08009cd8   Data           0  lc_ctype_c.o(locale$$data)
    __lcnum_c_name                           0x08009cdc   Data           2  lc_numeric_c.o(locale$$data)
    __lcnum_c_start                          0x08009ce4   Data           0  lc_numeric_c.o(locale$$data)
    __lcnum_c_point                          0x08009cf0   Data           0  lc_numeric_c.o(locale$$data)
    __lcnum_c_thousands                      0x08009cf2   Data           0  lc_numeric_c.o(locale$$data)
    __lcnum_c_grouping                       0x08009cf3   Data           0  lc_numeric_c.o(locale$$data)
    __lcnum_c_end                            0x08009cf4   Data           0  lc_numeric_c.o(locale$$data)
    .data                                    0x20000000   Section        8  dbg.o(.data)
    .data                                    0x20000008   Section       14  led.o(.data)
    Bt_cnt                                   0x20000010   Data           2  led.o(.data)
    Obd_cnt                                  0x20000012   Data           2  led.o(.data)
    LED_BtFlag                               0x20000014   Data           1  led.o(.data)
    LED_ObdFlag                              0x20000015   Data           1  led.o(.data)
    .data                                    0x20000016   Section        2  main.o(.data)
    .data                                    0x20000018   Section        4  rtc.o(.data)
    tmr                                      0x20000018   Data           4  rtc.o(.data)
    .data                                    0x2000001c   Section       20  stm32f10x_rcc.o(.data)
    APBAHBPrescTable                         0x2000001c   Data          16  stm32f10x_rcc.o(.data)
    ADCPrescTable                            0x2000002c   Data           4  stm32f10x_rcc.o(.data)
    .data                                    0x20000030   Section       20  system_stm32f10x.o(.data)
    .data                                    0x20000044   Section       20  usartdrive.o(.data)
    .data                                    0x20000058   Section       10  w25xx.o(.data)
    tmr                                      0x20000058   Data           4  w25xx.o(.data)
    addr                                     0x2000005c   Data           4  w25xx.o(.data)
    len                                      0x20000060   Data           1  w25xx.o(.data)
    step                                     0x20000061   Data           1  w25xx.o(.data)
    .data                                    0x20000064   Section       49  bt_driver.o(.data)
    MacBuf                                   0x20000064   Data           6  bt_driver.o(.data)
    stateCnt                                 0x20000071   Data           4  bt_driver.o(.data)
    step                                     0x20000080   Data           1  bt_driver.o(.data)
    buf                                      0x20000081   Data           4  bt_driver.o(.data)
    cmd                                      0x20000086   Data           2  bt_driver.o(.data)
    len                                      0x20000088   Data           2  bt_driver.o(.data)
    idx                                      0x2000008a   Data           2  bt_driver.o(.data)
    cnt                                      0x2000008c   Data           1  bt_driver.o(.data)
    step                                     0x2000008d   Data           1  bt_driver.o(.data)
    tmr                                      0x20000090   Data           4  bt_driver.o(.data)
    connectStatus                            0x20000094   Data           1  bt_driver.o(.data)
    .bss                                     0x20000098   Section      512  dbg.o(.bss)
    buf                                      0x20000098   Data         512  dbg.o(.bss)
    .bss                                     0x20000298   Section       12  led.o(.bss)
    .bss                                     0x200002a4   Section       18  rtc.o(.bss)
    .bss                                     0x200002b6   Section     3072  usartdrive.o(.bss)
    .bss                                     0x20000eb8   Section     4124  w25xx.o(.bss)
    .bss                                     0x20001ed4   Section     6922  bt_driver.o(.bss)
    datBuf                                   0x2000375e   Data         640  bt_driver.o(.bss)
    .bss                                     0x200039e0   Section       96  libspace.o(.bss)
    HEAP                                     0x20003a40   Section      512  startup_stm32f10x_cl.o(HEAP)
    Heap_Mem                                 0x20003a40   Data         512  startup_stm32f10x_cl.o(HEAP)
    STACK                                    0x20003c40   Section     4096  startup_stm32f10x_cl.o(STACK)
    Stack_Mem                                0x20003c40   Data        4096  startup_stm32f10x_cl.o(STACK)
    __initial_sp                             0x20004c40   Data           0  startup_stm32f10x_cl.o(STACK)

    Global Symbols

    Symbol Name                              Value     Ov Type        Size  Object(Section)

    BuildAttributes$$THM_ISAv4$P$D$K$B$S$PE$A:L22UL41UL21$X:L11$S22US41US21$IEEE1$IW$USESV6$~STKCKD$USESV7$~SHL$OTIME$ROPI$IEEEJ$EBA8$UX$STANDARDLIB$REQ8$PRES8$EABIv2 0x00000000   Number         0  anon$$obj.o ABSOLUTE
    __ARM_use_no_argv                        0x00000000   Number         0  main.o ABSOLUTE
    _printf_flags                            0x00000000   Number         0  printf_stubs.o ABSOLUTE
    _printf_return_value                     0x00000000   Number         0  printf_stubs.o ABSOLUTE
    _printf_sizespec                         0x00000000   Number         0  printf_stubs.o ABSOLUTE
    _printf_widthprec                        0x00000000   Number         0  printf_stubs.o ABSOLUTE
    __ARM_exceptions_init                     - Undefined Weak Reference
    __alloca_initialize                       - Undefined Weak Reference
    __arm_preinit_                            - Undefined Weak Reference
    __cpp_initialize__aeabi_                  - Undefined Weak Reference
    __cxa_finalize                            - Undefined Weak Reference
    __sigvec_lookup                           - Undefined Weak Reference
    _atexit_init                              - Undefined Weak Reference
    _call_atexit_fns                          - Undefined Weak Reference
    _clock_init                               - Undefined Weak Reference
    _fp_trap_init                             - Undefined Weak Reference
    _fp_trap_shutdown                         - Undefined Weak Reference
    _get_lc_collate                           - Undefined Weak Reference
    _get_lc_monetary                          - Undefined Weak Reference
    _get_lc_time                              - Undefined Weak Reference
    _getenv_init                              - Undefined Weak Reference
    _handle_redirection                       - Undefined Weak Reference
    _init_alloc                               - Undefined Weak Reference
    _init_user_alloc                          - Undefined Weak Reference
    _initio                                   - Undefined Weak Reference
    _mutex_acquire                            - Undefined Weak Reference
    _mutex_release                            - Undefined Weak Reference
    _printf_fp_hex                            - Undefined Weak Reference
    _printf_mbtowc                            - Undefined Weak Reference
    _printf_wc                                - Undefined Weak Reference
    _rand_init                                - Undefined Weak Reference
    _signal_finish                            - Undefined Weak Reference
    _signal_init                              - Undefined Weak Reference
    _terminate_alloc                          - Undefined Weak Reference
    _terminate_user_alloc                     - Undefined Weak Reference
    _terminateio                              - Undefined Weak Reference
    __Vectors_Size                           0x00000150   Number         0  startup_stm32f10x_cl.o ABSOLUTE
    __Vectors                                0x08002800   Data           4  startup_stm32f10x_cl.o(RESET)
    __Vectors_End                            0x08002950   Data           0  startup_stm32f10x_cl.o(RESET)
    __main                                   0x08002951   Thumb Code     8  __main.o(!!!main)
    __scatterload                            0x08002959   Thumb Code     0  __scatter.o(!!!scatter)
    __scatterload_rt2                        0x08002959   Thumb Code    44  __scatter.o(!!!scatter)
    __scatterload_rt2_thumb_only             0x08002959   Thumb Code     0  __scatter.o(!!!scatter)
    __scatterload_null                       0x08002967   Thumb Code     0  __scatter.o(!!!scatter)
    __scatterload_copy                       0x0800298d   Thumb Code    26  __scatter_copy.o(!!handler_copy)
    __scatterload_zeroinit                   0x080029a9   Thumb Code    28  __scatter_zi.o(!!handler_zi)
    _printf_n                                0x080029c5   Thumb Code     0  _printf_n.o(.ARM.Collect$$_printf_percent$$00000001)
    _printf_percent                          0x080029c5   Thumb Code     0  _printf_percent.o(.ARM.Collect$$_printf_percent$$00000000)
    _printf_p                                0x080029cb   Thumb Code     0  _printf_p.o(.ARM.Collect$$_printf_percent$$00000002)
    _printf_f                                0x080029d1   Thumb Code     0  _printf_f.o(.ARM.Collect$$_printf_percent$$00000003)
    _printf_e                                0x080029d7   Thumb Code     0  _printf_e.o(.ARM.Collect$$_printf_percent$$00000004)
    _printf_g                                0x080029dd   Thumb Code     0  _printf_g.o(.ARM.Collect$$_printf_percent$$00000005)
    _printf_a                                0x080029e3   Thumb Code     0  _printf_a.o(.ARM.Collect$$_printf_percent$$00000006)
    _printf_ll                               0x080029e9   Thumb Code     0  _printf_ll.o(.ARM.Collect$$_printf_percent$$00000007)
    _printf_i                                0x080029f3   Thumb Code     0  _printf_i.o(.ARM.Collect$$_printf_percent$$00000008)
    _printf_d                                0x080029f9   Thumb Code     0  _printf_d.o(.ARM.Collect$$_printf_percent$$00000009)
    _printf_u                                0x080029ff   Thumb Code     0  _printf_u.o(.ARM.Collect$$_printf_percent$$0000000A)
    _printf_o                                0x08002a05   Thumb Code     0  _printf_o.o(.ARM.Collect$$_printf_percent$$0000000B)
    _printf_x                                0x08002a0b   Thumb Code     0  _printf_x.o(.ARM.Collect$$_printf_percent$$0000000C)
    _printf_lli                              0x08002a11   Thumb Code     0  _printf_lli.o(.ARM.Collect$$_printf_percent$$0000000D)
    _printf_lld                              0x08002a17   Thumb Code     0  _printf_lld.o(.ARM.Collect$$_printf_percent$$0000000E)
    _printf_llu                              0x08002a1d   Thumb Code     0  _printf_llu.o(.ARM.Collect$$_printf_percent$$0000000F)
    _printf_llo                              0x08002a23   Thumb Code     0  _printf_llo.o(.ARM.Collect$$_printf_percent$$00000010)
    _printf_llx                              0x08002a29   Thumb Code     0  _printf_llx.o(.ARM.Collect$$_printf_percent$$00000011)
    _printf_l                                0x08002a2f   Thumb Code     0  _printf_l.o(.ARM.Collect$$_printf_percent$$00000012)
    _printf_c                                0x08002a39   Thumb Code     0  _printf_c.o(.ARM.Collect$$_printf_percent$$00000013)
    _printf_s                                0x08002a3f   Thumb Code     0  _printf_s.o(.ARM.Collect$$_printf_percent$$00000014)
    _printf_lc                               0x08002a45   Thumb Code     0  _printf_lc.o(.ARM.Collect$$_printf_percent$$00000015)
    _printf_ls                               0x08002a4b   Thumb Code     0  _printf_ls.o(.ARM.Collect$$_printf_percent$$00000016)
    _printf_percent_end                      0x08002a51   Thumb Code     0  _printf_percent_end.o(.ARM.Collect$$_printf_percent$$00000017)
    __rt_lib_init                            0x08002a55   Thumb Code     0  libinit.o(.ARM.Collect$$libinit$$00000000)
    __rt_lib_init_fp_1                       0x08002a57   Thumb Code     0  libinit2.o(.ARM.Collect$$libinit$$00000002)
    __rt_lib_init_heap_1                     0x08002a57   Thumb Code     0  libinit2.o(.ARM.Collect$$libinit$$0000000A)
    __rt_lib_init_lc_common                  0x08002a57   Thumb Code     0  libinit2.o(.ARM.Collect$$libinit$$0000000F)
    __rt_lib_init_preinit_1                  0x08002a57   Thumb Code     0  libinit2.o(.ARM.Collect$$libinit$$00000004)
    __rt_lib_init_rand_1                     0x08002a57   Thumb Code     0  libinit2.o(.ARM.Collect$$libinit$$0000000E)
    __rt_lib_init_user_alloc_1               0x08002a57   Thumb Code     0  libinit2.o(.ARM.Collect$$libinit$$0000000C)
    __rt_lib_init_lc_collate_1               0x08002a5d   Thumb Code     0  libinit2.o(.ARM.Collect$$libinit$$00000011)
    __rt_lib_init_lc_ctype_2                 0x08002a5d   Thumb Code     0  libinit2.o(.ARM.Collect$$libinit$$00000012)
    __rt_lib_init_lc_ctype_1                 0x08002a69   Thumb Code     0  libinit2.o(.ARM.Collect$$libinit$$00000013)
    __rt_lib_init_lc_monetary_1              0x08002a69   Thumb Code     0  libinit2.o(.ARM.Collect$$libinit$$00000015)
    __rt_lib_init_lc_numeric_2               0x08002a69   Thumb Code     0  libinit2.o(.ARM.Collect$$libinit$$00000016)
    __rt_lib_init_alloca_1                   0x08002a73   Thumb Code     0  libinit2.o(.ARM.Collect$$libinit$$0000002E)
    __rt_lib_init_argv_1                     0x08002a73   Thumb Code     0  libinit2.o(.ARM.Collect$$libinit$$0000002C)
    __rt_lib_init_atexit_1                   0x08002a73   Thumb Code     0  libinit2.o(.ARM.Collect$$libinit$$0000001B)
    __rt_lib_init_clock_1                    0x08002a73   Thumb Code     0  libinit2.o(.ARM.Collect$$libinit$$00000021)
    __rt_lib_init_cpp_1                      0x08002a73   Thumb Code     0  libinit2.o(.ARM.Collect$$libinit$$00000032)
    __rt_lib_init_exceptions_1               0x08002a73   Thumb Code     0  libinit2.o(.ARM.Collect$$libinit$$00000030)
    __rt_lib_init_fp_trap_1                  0x08002a73   Thumb Code     0  libinit2.o(.ARM.Collect$$libinit$$0000001F)
    __rt_lib_init_getenv_1                   0x08002a73   Thumb Code     0  libinit2.o(.ARM.Collect$$libinit$$00000023)
    __rt_lib_init_lc_numeric_1               0x08002a73   Thumb Code     0  libinit2.o(.ARM.Collect$$libinit$$00000017)
    __rt_lib_init_lc_time_1                  0x08002a73   Thumb Code     0  libinit2.o(.ARM.Collect$$libinit$$00000019)
    __rt_lib_init_return                     0x08002a73   Thumb Code     0  libinit2.o(.ARM.Collect$$libinit$$00000033)
    __rt_lib_init_signal_1                   0x08002a73   Thumb Code     0  libinit2.o(.ARM.Collect$$libinit$$0000001D)
    __rt_lib_init_stdio_1                    0x08002a73   Thumb Code     0  libinit2.o(.ARM.Collect$$libinit$$00000025)
    __rt_lib_shutdown                        0x08002a75   Thumb Code     0  libshutdown.o(.ARM.Collect$$libshutdown$$00000000)
    __rt_lib_shutdown_cpp_1                  0x08002a77   Thumb Code     0  libshutdown2.o(.ARM.Collect$$libshutdown$$00000002)
    __rt_lib_shutdown_fp_trap_1              0x08002a77   Thumb Code     0  libshutdown2.o(.ARM.Collect$$libshutdown$$00000007)
    __rt_lib_shutdown_heap_1                 0x08002a77   Thumb Code     0  libshutdown2.o(.ARM.Collect$$libshutdown$$0000000F)
    __rt_lib_shutdown_return                 0x08002a77   Thumb Code     0  libshutdown2.o(.ARM.Collect$$libshutdown$$00000010)
    __rt_lib_shutdown_signal_1               0x08002a77   Thumb Code     0  libshutdown2.o(.ARM.Collect$$libshutdown$$0000000A)
    __rt_lib_shutdown_stdio_1                0x08002a77   Thumb Code     0  libshutdown2.o(.ARM.Collect$$libshutdown$$00000004)
    __rt_lib_shutdown_user_alloc_1           0x08002a77   Thumb Code     0  libshutdown2.o(.ARM.Collect$$libshutdown$$0000000C)
    __rt_entry                               0x08002a79   Thumb Code     0  __rtentry.o(.ARM.Collect$$rtentry$$00000000)
    __rt_entry_presh_1                       0x08002a79   Thumb Code     0  __rtentry2.o(.ARM.Collect$$rtentry$$00000002)
    __rt_entry_sh                            0x08002a79   Thumb Code     0  __rtentry4.o(.ARM.Collect$$rtentry$$00000004)
    __rt_entry_li                            0x08002a7f   Thumb Code     0  __rtentry2.o(.ARM.Collect$$rtentry$$0000000A)
    __rt_entry_postsh_1                      0x08002a7f   Thumb Code     0  __rtentry2.o(.ARM.Collect$$rtentry$$00000009)
    __rt_entry_main                          0x08002a83   Thumb Code     0  __rtentry2.o(.ARM.Collect$$rtentry$$0000000D)
    __rt_entry_postli_1                      0x08002a83   Thumb Code     0  __rtentry2.o(.ARM.Collect$$rtentry$$0000000C)
    __rt_exit                                0x08002a8b   Thumb Code     0  rtexit.o(.ARM.Collect$$rtexit$$00000000)
    __rt_exit_ls                             0x08002a8d   Thumb Code     0  rtexit2.o(.ARM.Collect$$rtexit$$00000003)
    __rt_exit_prels_1                        0x08002a8d   Thumb Code     0  rtexit2.o(.ARM.Collect$$rtexit$$00000002)
    __rt_exit_exit                           0x08002a91   Thumb Code     0  rtexit2.o(.ARM.Collect$$rtexit$$00000004)
    WFI_SET                                  0x08002a99   Thumb Code     2  sys.o(.emb_text)
    Reset_Handler                            0x08002a9d   Thumb Code     8  startup_stm32f10x_cl.o(.text)
    PendSV_Handler                           0x08002ab3   Thumb Code     2  startup_stm32f10x_cl.o(.text)
    ADC1_2_IRQHandler                        0x08002ab7   Thumb Code     0  startup_stm32f10x_cl.o(.text)
    CAN1_RX0_IRQHandler                      0x08002ab7   Thumb Code     0  startup_stm32f10x_cl.o(.text)
    CAN1_RX1_IRQHandler                      0x08002ab7   Thumb Code     0  startup_stm32f10x_cl.o(.text)
    CAN1_SCE_IRQHandler                      0x08002ab7   Thumb Code     0  startup_stm32f10x_cl.o(.text)
    CAN1_TX_IRQHandler                       0x08002ab7   Thumb Code     0  startup_stm32f10x_cl.o(.text)
    CAN2_RX0_IRQHandler                      0x08002ab7   Thumb Code     0  startup_stm32f10x_cl.o(.text)
    CAN2_RX1_IRQHandler                      0x08002ab7   Thumb Code     0  startup_stm32f10x_cl.o(.text)
    CAN2_SCE_IRQHandler                      0x08002ab7   Thumb Code     0  startup_stm32f10x_cl.o(.text)
    CAN2_TX_IRQHandler                       0x08002ab7   Thumb Code     0  startup_stm32f10x_cl.o(.text)
    DMA1_Channel1_IRQHandler                 0x08002ab7   Thumb Code     0  startup_stm32f10x_cl.o(.text)
    DMA1_Channel2_IRQHandler                 0x08002ab7   Thumb Code     0  startup_stm32f10x_cl.o(.text)
    DMA1_Channel3_IRQHandler                 0x08002ab7   Thumb Code     0  startup_stm32f10x_cl.o(.text)
    DMA1_Channel4_IRQHandler                 0x08002ab7   Thumb Code     0  startup_stm32f10x_cl.o(.text)
    DMA1_Channel5_IRQHandler                 0x08002ab7   Thumb Code     0  startup_stm32f10x_cl.o(.text)
    DMA1_Channel6_IRQHandler                 0x08002ab7   Thumb Code     0  startup_stm32f10x_cl.o(.text)
    DMA1_Channel7_IRQHandler                 0x08002ab7   Thumb Code     0  startup_stm32f10x_cl.o(.text)
    DMA2_Channel1_IRQHandler                 0x08002ab7   Thumb Code     0  startup_stm32f10x_cl.o(.text)
    DMA2_Channel2_IRQHandler                 0x08002ab7   Thumb Code     0  startup_stm32f10x_cl.o(.text)
    DMA2_Channel3_IRQHandler                 0x08002ab7   Thumb Code     0  startup_stm32f10x_cl.o(.text)
    DMA2_Channel4_IRQHandler                 0x08002ab7   Thumb Code     0  startup_stm32f10x_cl.o(.text)
    DMA2_Channel5_IRQHandler                 0x08002ab7   Thumb Code     0  startup_stm32f10x_cl.o(.text)
    ETH_IRQHandler                           0x08002ab7   Thumb Code     0  startup_stm32f10x_cl.o(.text)
    ETH_WKUP_IRQHandler                      0x08002ab7   Thumb Code     0  startup_stm32f10x_cl.o(.text)
    EXTI0_IRQHandler                         0x08002ab7   Thumb Code     0  startup_stm32f10x_cl.o(.text)
    EXTI15_10_IRQHandler                     0x08002ab7   Thumb Code     0  startup_stm32f10x_cl.o(.text)
    EXTI1_IRQHandler                         0x08002ab7   Thumb Code     0  startup_stm32f10x_cl.o(.text)
    EXTI2_IRQHandler                         0x08002ab7   Thumb Code     0  startup_stm32f10x_cl.o(.text)
    EXTI3_IRQHandler                         0x08002ab7   Thumb Code     0  startup_stm32f10x_cl.o(.text)
    EXTI4_IRQHandler                         0x08002ab7   Thumb Code     0  startup_stm32f10x_cl.o(.text)
    EXTI9_5_IRQHandler                       0x08002ab7   Thumb Code     0  startup_stm32f10x_cl.o(.text)
    FLASH_IRQHandler                         0x08002ab7   Thumb Code     0  startup_stm32f10x_cl.o(.text)
    I2C1_ER_IRQHandler                       0x08002ab7   Thumb Code     0  startup_stm32f10x_cl.o(.text)
    I2C1_EV_IRQHandler                       0x08002ab7   Thumb Code     0  startup_stm32f10x_cl.o(.text)
    I2C2_ER_IRQHandler                       0x08002ab7   Thumb Code     0  startup_stm32f10x_cl.o(.text)
    I2C2_EV_IRQHandler                       0x08002ab7   Thumb Code     0  startup_stm32f10x_cl.o(.text)
    OTG_FS_IRQHandler                        0x08002ab7   Thumb Code     0  startup_stm32f10x_cl.o(.text)
    OTG_FS_WKUP_IRQHandler                   0x08002ab7   Thumb Code     0  startup_stm32f10x_cl.o(.text)
    PVD_IRQHandler                           0x08002ab7   Thumb Code     0  startup_stm32f10x_cl.o(.text)
    RCC_IRQHandler                           0x08002ab7   Thumb Code     0  startup_stm32f10x_cl.o(.text)
    RTCAlarm_IRQHandler                      0x08002ab7   Thumb Code     0  startup_stm32f10x_cl.o(.text)
    RTC_IRQHandler                           0x08002ab7   Thumb Code     0  startup_stm32f10x_cl.o(.text)
    SPI1_IRQHandler                          0x08002ab7   Thumb Code     0  startup_stm32f10x_cl.o(.text)
    SPI2_IRQHandler                          0x08002ab7   Thumb Code     0  startup_stm32f10x_cl.o(.text)
    SPI3_IRQHandler                          0x08002ab7   Thumb Code     0  startup_stm32f10x_cl.o(.text)
    TAMPER_IRQHandler                        0x08002ab7   Thumb Code     0  startup_stm32f10x_cl.o(.text)
    TIM1_BRK_IRQHandler                      0x08002ab7   Thumb Code     0  startup_stm32f10x_cl.o(.text)
    TIM1_CC_IRQHandler                       0x08002ab7   Thumb Code     0  startup_stm32f10x_cl.o(.text)
    TIM1_TRG_COM_IRQHandler                  0x08002ab7   Thumb Code     0  startup_stm32f10x_cl.o(.text)
    TIM1_UP_IRQHandler                       0x08002ab7   Thumb Code     0  startup_stm32f10x_cl.o(.text)
    TIM2_IRQHandler                          0x08002ab7   Thumb Code     0  startup_stm32f10x_cl.o(.text)
    TIM3_IRQHandler                          0x08002ab7   Thumb Code     0  startup_stm32f10x_cl.o(.text)
    TIM4_IRQHandler                          0x08002ab7   Thumb Code     0  startup_stm32f10x_cl.o(.text)
    TIM5_IRQHandler                          0x08002ab7   Thumb Code     0  startup_stm32f10x_cl.o(.text)
    TIM6_IRQHandler                          0x08002ab7   Thumb Code     0  startup_stm32f10x_cl.o(.text)
    TIM7_IRQHandler                          0x08002ab7   Thumb Code     0  startup_stm32f10x_cl.o(.text)
    UART4_IRQHandler                         0x08002ab7   Thumb Code     0  startup_stm32f10x_cl.o(.text)
    USART3_IRQHandler                        0x08002ab7   Thumb Code     0  startup_stm32f10x_cl.o(.text)
    WWDG_IRQHandler                          0x08002ab7   Thumb Code     0  startup_stm32f10x_cl.o(.text)
    __user_initial_stackheap                 0x08002ab9   Thumb Code     0  startup_stm32f10x_cl.o(.text)
    dbg                                      0x08002add   Thumb Code   214  dbg.o(.text)
    dbg_getCtl                               0x08002bb3   Thumb Code    22  dbg.o(.text)
    dbg_proc                                 0x08002bc9   Thumb Code   330  dbg.o(.text)
    LED_Init                                 0x08002d61   Thumb Code   104  led.o(.text)
    Led_OutControl                           0x08002dc9   Thumb Code   226  led.o(.text)
    Led_SetParameter                         0x08002eab   Thumb Code   160  led.o(.text)
    IWDG_WriteAccessCmd                      0x08002f69   Thumb Code     6  stm32f10x_iwdg.o(.text)
    IWDG_SetPrescaler                        0x08002f6f   Thumb Code     6  stm32f10x_iwdg.o(.text)
    IWDG_SetReload                           0x08002f75   Thumb Code     6  stm32f10x_iwdg.o(.text)
    IWDG_ReloadCounter                       0x08002f7b   Thumb Code    10  stm32f10x_iwdg.o(.text)
    IWDG_Enable                              0x08002f85   Thumb Code    10  stm32f10x_iwdg.o(.text)
    IWDG_GetFlagStatus                       0x08002f8f   Thumb Code    20  stm32f10x_iwdg.o(.text)
    __use_no_semihosting                     0x08002fa9   Thumb Code     2  use_no_semi_2.o(.text)
    __c89vsprintf                            0x08002fad   Thumb Code    32  c89vsprintf.o(.text)
    __2printf                                0x08002fd1   Thumb Code    20  __2printf.o(.text)
    __use_two_region_memory                  0x08002fe9   Thumb Code     2  heapauxi.o(.text)
    __rt_heap_escrow$2region                 0x08002feb   Thumb Code     2  heapauxi.o(.text)
    __rt_heap_expand$2region                 0x08002fed   Thumb Code     2  heapauxi.o(.text)
    __I$use$semihosting                      0x08002fef   Thumb Code     0  use_no_semi.o(.text)
    __use_no_semihosting_swi                 0x08002fef   Thumb Code     2  use_no_semi.o(.text)
    __aeabi_errno_addr                       0x08002ff1   Thumb Code     8  rt_errno_addr_intlibspace.o(.text)
    __errno$intlibspace                      0x08002ff1   Thumb Code     0  rt_errno_addr_intlibspace.o(.text)
    __rt_errno_addr$intlibspace              0x08002ff1   Thumb Code     0  rt_errno_addr_intlibspace.o(.text)
    __user_libspace                          0x08002ff9   Thumb Code     8  libspace.o(.text)
    __user_perproc_libspace                  0x08002ff9   Thumb Code     0  libspace.o(.text)
    __user_perthread_libspace                0x08002ff9   Thumb Code     0  libspace.o(.text)
    version                                  0x08003000   Data          64  main.o(.ARM.__AT_0x08003000)
    BSP_ADcPower12v                          0x08003041   Thumb Code    48  main.o(.text)
    BSP_ADCConfig                            0x08003071   Thumb Code   164  main.o(.text)
    BSP_adcStart                             0x08003115   Thumb Code    94  main.o(.text)
    BSP_ADCInit                              0x08003173   Thumb Code    44  main.o(.text)
    delay_init                               0x0800319f   Thumb Code    44  main.o(.text)
    delay_us                                 0x080031cb   Thumb Code    78  main.o(.text)
    delay_ms                                 0x08003219   Thumb Code    18  main.o(.text)
    tick_get                                 0x0800322b   Thumb Code     6  main.o(.text)
    tick_cmp                                 0x08003231   Thumb Code    20  main.o(.text)
    SysTick_Handler                          0x08003245   Thumb Code    26  main.o(.text)
    main                                     0x0800325f   Thumb Code   132  main.o(.text)
    NVIC_PriorityGroupConfig                 0x0800336d   Thumb Code    10  misc.o(.text)
    NVIC_Init                                0x08003377   Thumb Code   100  misc.o(.text)
    NVIC_SetVectorTable                      0x080033db   Thumb Code    14  misc.o(.text)
    NVIC_SystemLPConfig                      0x080033e9   Thumb Code    34  misc.o(.text)
    SysTick_CLKSourceConfig                  0x0800340b   Thumb Code    40  misc.o(.text)
    mktime                                   0x08003449   Thumb Code    94  rtc.o(.text)
    rtc_month_days                           0x080034a7   Thumb Code    64  rtc.o(.text)
    rtc_time_to_tm                           0x080034e7   Thumb Code   318  rtc.o(.text)
    rtc_valid_tm                             0x08003625   Thumb Code    86  rtc.o(.text)
    rtc_tm_to_time                           0x0800367b   Thumb Code    44  rtc.o(.text)
    get_RTCCounter                           0x080036a7   Thumb Code     8  rtc.o(.text)
    set_RTCCounter                           0x080036af   Thumb Code    20  rtc.o(.text)
    set_RTCTime                              0x080036c3   Thumb Code    22  rtc.o(.text)
    RTC_Configuration                        0x080036d9   Thumb Code   130  rtc.o(.text)
    rtc_DefTimeAdjust                        0x0800375b   Thumb Code    60  rtc.o(.text)
    RTCInit                                  0x08003797   Thumb Code    94  rtc.o(.text)
    rtc_test                                 0x080037f5   Thumb Code   220  rtc.o(.text)
    ADC_DeInit                               0x080038d1   Thumb Code    78  stm32f10x_adc.o(.text)
    ADC_Init                                 0x0800391f   Thumb Code    70  stm32f10x_adc.o(.text)
    ADC_StructInit                           0x08003965   Thumb Code    18  stm32f10x_adc.o(.text)
    ADC_Cmd                                  0x08003977   Thumb Code    22  stm32f10x_adc.o(.text)
    ADC_DMACmd                               0x0800398d   Thumb Code    22  stm32f10x_adc.o(.text)
    ADC_ITConfig                             0x080039a3   Thumb Code    24  stm32f10x_adc.o(.text)
    ADC_ResetCalibration                     0x080039bb   Thumb Code    10  stm32f10x_adc.o(.text)
    ADC_GetResetCalibrationStatus            0x080039c5   Thumb Code    20  stm32f10x_adc.o(.text)
    ADC_StartCalibration                     0x080039d9   Thumb Code    10  stm32f10x_adc.o(.text)
    ADC_GetCalibrationStatus                 0x080039e3   Thumb Code    20  stm32f10x_adc.o(.text)
    ADC_SoftwareStartConvCmd                 0x080039f7   Thumb Code    22  stm32f10x_adc.o(.text)
    ADC_GetSoftwareStartConvStatus           0x08003a0d   Thumb Code    20  stm32f10x_adc.o(.text)
    ADC_DiscModeChannelCountConfig           0x08003a21   Thumb Code    24  stm32f10x_adc.o(.text)
    ADC_DiscModeCmd                          0x08003a39   Thumb Code    22  stm32f10x_adc.o(.text)
    ADC_RegularChannelConfig                 0x08003a4f   Thumb Code   184  stm32f10x_adc.o(.text)
    ADC_ExternalTrigConvCmd                  0x08003b07   Thumb Code    22  stm32f10x_adc.o(.text)
    ADC_GetConversionValue                   0x08003b1d   Thumb Code     8  stm32f10x_adc.o(.text)
    ADC_GetDualModeConversionValue           0x08003b25   Thumb Code     8  stm32f10x_adc.o(.text)
    ADC_AutoInjectedConvCmd                  0x08003b2d   Thumb Code    22  stm32f10x_adc.o(.text)
    ADC_InjectedDiscModeCmd                  0x08003b43   Thumb Code    22  stm32f10x_adc.o(.text)
    ADC_ExternalTrigInjectedConvConfig       0x08003b59   Thumb Code    16  stm32f10x_adc.o(.text)
    ADC_ExternalTrigInjectedConvCmd          0x08003b69   Thumb Code    22  stm32f10x_adc.o(.text)
    ADC_SoftwareStartInjectedConvCmd         0x08003b7f   Thumb Code    22  stm32f10x_adc.o(.text)
    ADC_GetSoftwareStartInjectedConvCmdStatus 0x08003b95   Thumb Code    20  stm32f10x_adc.o(.text)
    ADC_InjectedChannelConfig                0x08003ba9   Thumb Code   130  stm32f10x_adc.o(.text)
    ADC_InjectedSequencerLengthConfig        0x08003c2b   Thumb Code    24  stm32f10x_adc.o(.text)
    ADC_SetInjectedOffset                    0x08003c43   Thumb Code    20  stm32f10x_adc.o(.text)
    ADC_GetInjectedConversionValue           0x08003c57   Thumb Code    28  stm32f10x_adc.o(.text)
    ADC_AnalogWatchdogCmd                    0x08003c73   Thumb Code    16  stm32f10x_adc.o(.text)
    ADC_AnalogWatchdogThresholdsConfig       0x08003c83   Thumb Code     6  stm32f10x_adc.o(.text)
    ADC_AnalogWatchdogSingleChannelConfig    0x08003c89   Thumb Code    16  stm32f10x_adc.o(.text)
    ADC_TempSensorVrefintCmd                 0x08003c99   Thumb Code    64  stm32f10x_adc.o(.text)
    ADC_GetFlagStatus                        0x08003cd9   Thumb Code    18  stm32f10x_adc.o(.text)
    ADC_ClearFlag                            0x08003ceb   Thumb Code     6  stm32f10x_adc.o(.text)
    ADC_GetITStatus                          0x08003cf1   Thumb Code    36  stm32f10x_adc.o(.text)
    ADC_ClearITPendingBit                    0x08003d15   Thumb Code    10  stm32f10x_adc.o(.text)
    BKP_DeInit                               0x08003d21   Thumb Code    16  stm32f10x_bkp.o(.text)
    BKP_TamperPinLevelConfig                 0x08003d31   Thumb Code     6  stm32f10x_bkp.o(.text)
    BKP_TamperPinCmd                         0x08003d37   Thumb Code     8  stm32f10x_bkp.o(.text)
    BKP_ITConfig                             0x08003d3f   Thumb Code     8  stm32f10x_bkp.o(.text)
    BKP_RTCOutputConfig                      0x08003d47   Thumb Code    22  stm32f10x_bkp.o(.text)
    BKP_SetRTCCalibrationValue               0x08003d5d   Thumb Code    22  stm32f10x_bkp.o(.text)
    BKP_WriteBackupRegister                  0x08003d73   Thumb Code    24  stm32f10x_bkp.o(.text)
    BKP_ReadBackupRegister                   0x08003d8b   Thumb Code    26  stm32f10x_bkp.o(.text)
    BKP_GetFlagStatus                        0x08003da5   Thumb Code    10  stm32f10x_bkp.o(.text)
    BKP_ClearFlag                            0x08003daf   Thumb Code    18  stm32f10x_bkp.o(.text)
    BKP_GetITStatus                          0x08003dc1   Thumb Code    10  stm32f10x_bkp.o(.text)
    BKP_ClearITPendingBit                    0x08003dcb   Thumb Code    18  stm32f10x_bkp.o(.text)
    GPIO_DeInit                              0x08003de5   Thumb Code   172  stm32f10x_gpio.o(.text)
    GPIO_AFIODeInit                          0x08003e91   Thumb Code    20  stm32f10x_gpio.o(.text)
    GPIO_Init                                0x08003ea5   Thumb Code   278  stm32f10x_gpio.o(.text)
    GPIO_StructInit                          0x08003fbb   Thumb Code    16  stm32f10x_gpio.o(.text)
    GPIO_ReadInputDataBit                    0x08003fcb   Thumb Code    18  stm32f10x_gpio.o(.text)
    GPIO_ReadInputData                       0x08003fdd   Thumb Code     8  stm32f10x_gpio.o(.text)
    GPIO_ReadOutputDataBit                   0x08003fe5   Thumb Code    18  stm32f10x_gpio.o(.text)
    GPIO_ReadOutputData                      0x08003ff7   Thumb Code     8  stm32f10x_gpio.o(.text)
    GPIO_SetBits                             0x08003fff   Thumb Code     4  stm32f10x_gpio.o(.text)
    GPIO_ResetBits                           0x08004003   Thumb Code     4  stm32f10x_gpio.o(.text)
    GPIO_WriteBit                            0x08004007   Thumb Code    10  stm32f10x_gpio.o(.text)
    GPIO_Write                               0x08004011   Thumb Code     4  stm32f10x_gpio.o(.text)
    GPIO_PinLockConfig                       0x08004015   Thumb Code    18  stm32f10x_gpio.o(.text)
    GPIO_EventOutputConfig                   0x08004027   Thumb Code    26  stm32f10x_gpio.o(.text)
    GPIO_EventOutputCmd                      0x08004041   Thumb Code     6  stm32f10x_gpio.o(.text)
    GPIO_PinRemapConfig                      0x08004047   Thumb Code   138  stm32f10x_gpio.o(.text)
    GPIO_EXTILineConfig                      0x080040d1   Thumb Code    66  stm32f10x_gpio.o(.text)
    GPIO_ETH_MediaInterfaceConfig            0x08004113   Thumb Code     8  stm32f10x_gpio.o(.text)
    NMI_Handler                              0x08004141   Thumb Code     2  stm32f10x_it.o(.text)
    HardFault_Handler                        0x08004143   Thumb Code    14  stm32f10x_it.o(.text)
    MemManage_Handler                        0x08004151   Thumb Code   300  stm32f10x_it.o(.text)
    BusFault_Handler                         0x0800427d   Thumb Code   256  stm32f10x_it.o(.text)
    UsageFault_Handler                       0x0800437d   Thumb Code   322  stm32f10x_it.o(.text)
    SVC_Handler                              0x080044bf   Thumb Code   334  stm32f10x_it.o(.text)
    DebugMon_Handler                         0x0800460d   Thumb Code   278  stm32f10x_it.o(.text)
    PWR_DeInit                               0x08004731   Thumb Code    22  stm32f10x_pwr.o(.text)
    PWR_BackupAccessCmd                      0x08004747   Thumb Code     6  stm32f10x_pwr.o(.text)
    PWR_PVDCmd                               0x0800474d   Thumb Code     6  stm32f10x_pwr.o(.text)
    PWR_PVDLevelConfig                       0x08004753   Thumb Code    18  stm32f10x_pwr.o(.text)
    PWR_WakeUpPinCmd                         0x08004765   Thumb Code     8  stm32f10x_pwr.o(.text)
    PWR_EnterSTOPMode                        0x0800476d   Thumb Code    54  stm32f10x_pwr.o(.text)
    PWR_EnterSTANDBYMode                     0x080047a3   Thumb Code    42  stm32f10x_pwr.o(.text)
    PWR_GetFlagStatus                        0x080047cd   Thumb Code    20  stm32f10x_pwr.o(.text)
    PWR_ClearFlag                            0x080047e1   Thumb Code    14  stm32f10x_pwr.o(.text)
    RCC_DeInit                               0x080047fd   Thumb Code    78  stm32f10x_rcc.o(.text)
    RCC_HSEConfig                            0x0800484b   Thumb Code    70  stm32f10x_rcc.o(.text)
    RCC_GetFlagStatus                        0x08004891   Thumb Code    56  stm32f10x_rcc.o(.text)
    RCC_WaitForHSEStartUp                    0x080048c9   Thumb Code    56  stm32f10x_rcc.o(.text)
    RCC_AdjustHSICalibrationValue            0x08004901   Thumb Code    20  stm32f10x_rcc.o(.text)
    RCC_HSICmd                               0x08004915   Thumb Code     6  stm32f10x_rcc.o(.text)
    RCC_PLLConfig                            0x0800491b   Thumb Code    24  stm32f10x_rcc.o(.text)
    RCC_PLLCmd                               0x08004933   Thumb Code     6  stm32f10x_rcc.o(.text)
    RCC_PREDIV1Config                        0x08004939   Thumb Code    24  stm32f10x_rcc.o(.text)
    RCC_PREDIV2Config                        0x08004951   Thumb Code    18  stm32f10x_rcc.o(.text)
    RCC_PLL2Config                           0x08004963   Thumb Code    18  stm32f10x_rcc.o(.text)
    RCC_PLL2Cmd                              0x08004975   Thumb Code     6  stm32f10x_rcc.o(.text)
    RCC_PLL3Config                           0x0800497b   Thumb Code    18  stm32f10x_rcc.o(.text)
    RCC_PLL3Cmd                              0x0800498d   Thumb Code     6  stm32f10x_rcc.o(.text)
    RCC_SYSCLKConfig                         0x08004993   Thumb Code    18  stm32f10x_rcc.o(.text)
    RCC_GetSYSCLKSource                      0x080049a5   Thumb Code    10  stm32f10x_rcc.o(.text)
    RCC_HCLKConfig                           0x080049af   Thumb Code    18  stm32f10x_rcc.o(.text)
    RCC_PCLK1Config                          0x080049c1   Thumb Code    18  stm32f10x_rcc.o(.text)
    RCC_PCLK2Config                          0x080049d3   Thumb Code    20  stm32f10x_rcc.o(.text)
    RCC_ITConfig                             0x080049e7   Thumb Code    26  stm32f10x_rcc.o(.text)
    RCC_OTGFSCLKConfig                       0x08004a01   Thumb Code     8  stm32f10x_rcc.o(.text)
    RCC_ADCCLKConfig                         0x08004a09   Thumb Code    18  stm32f10x_rcc.o(.text)
    RCC_I2S2CLKConfig                        0x08004a1b   Thumb Code     6  stm32f10x_rcc.o(.text)
    RCC_I2S3CLKConfig                        0x08004a21   Thumb Code     8  stm32f10x_rcc.o(.text)
    RCC_LSEConfig                            0x08004a29   Thumb Code    50  stm32f10x_rcc.o(.text)
    RCC_LSICmd                               0x08004a5b   Thumb Code     6  stm32f10x_rcc.o(.text)
    RCC_RTCCLKConfig                         0x08004a61   Thumb Code    12  stm32f10x_rcc.o(.text)
    RCC_RTCCLKCmd                            0x08004a6d   Thumb Code     8  stm32f10x_rcc.o(.text)
    RCC_GetClocksFreq                        0x08004a75   Thumb Code   420  stm32f10x_rcc.o(.text)
    RCC_AHBPeriphClockCmd                    0x08004c19   Thumb Code    26  stm32f10x_rcc.o(.text)
    RCC_APB2PeriphClockCmd                   0x08004c33   Thumb Code    26  stm32f10x_rcc.o(.text)
    RCC_APB1PeriphClockCmd                   0x08004c4d   Thumb Code    26  stm32f10x_rcc.o(.text)
    RCC_AHBPeriphResetCmd                    0x08004c67   Thumb Code    26  stm32f10x_rcc.o(.text)
    RCC_APB2PeriphResetCmd                   0x08004c81   Thumb Code    26  stm32f10x_rcc.o(.text)
    RCC_APB1PeriphResetCmd                   0x08004c9b   Thumb Code    26  stm32f10x_rcc.o(.text)
    RCC_BackupResetCmd                       0x08004cb5   Thumb Code     6  stm32f10x_rcc.o(.text)
    RCC_ClockSecuritySystemCmd               0x08004cbb   Thumb Code     6  stm32f10x_rcc.o(.text)
    RCC_MCOConfig                            0x08004cc1   Thumb Code     6  stm32f10x_rcc.o(.text)
    RCC_ClearFlag                            0x08004cc7   Thumb Code    14  stm32f10x_rcc.o(.text)
    RCC_GetITStatus                          0x08004cd5   Thumb Code    20  stm32f10x_rcc.o(.text)
    RCC_ClearITPendingBit                    0x08004ce9   Thumb Code     6  stm32f10x_rcc.o(.text)
    RTC_ITConfig                             0x08004cfd   Thumb Code    26  stm32f10x_rtc.o(.text)
    RTC_EnterConfigMode                      0x08004d17   Thumb Code    18  stm32f10x_rtc.o(.text)
    RTC_ExitConfigMode                       0x08004d29   Thumb Code    20  stm32f10x_rtc.o(.text)
    RTC_GetCounter                           0x08004d3d   Thumb Code    18  stm32f10x_rtc.o(.text)
    RTC_SetCounter                           0x08004d4f   Thumb Code    26  stm32f10x_rtc.o(.text)
    RTC_SetPrescaler                         0x08004d69   Thumb Code    28  stm32f10x_rtc.o(.text)
    RTC_SetAlarm                             0x08004d85   Thumb Code    26  stm32f10x_rtc.o(.text)
    RTC_GetDivider                           0x08004d9f   Thumb Code    22  stm32f10x_rtc.o(.text)
    RTC_WaitForLastTask                      0x08004db5   Thumb Code    18  stm32f10x_rtc.o(.text)
    RTC_WaitForSynchro                       0x08004dc7   Thumb Code    36  stm32f10x_rtc.o(.text)
    RTC_GetFlagStatus                        0x08004deb   Thumb Code    22  stm32f10x_rtc.o(.text)
    RTC_ClearFlag                            0x08004e01   Thumb Code    16  stm32f10x_rtc.o(.text)
    RTC_GetITStatus                          0x08004e11   Thumb Code    32  stm32f10x_rtc.o(.text)
    RTC_ClearITPendingBit                    0x08004e31   Thumb Code    16  stm32f10x_rtc.o(.text)
    SPI_I2S_DeInit                           0x08004e45   Thumb Code    76  stm32f10x_spi.o(.text)
    SPI_Init                                 0x08004e91   Thumb Code    60  stm32f10x_spi.o(.text)
    I2S_Init                                 0x08004ecd   Thumb Code   292  stm32f10x_spi.o(.text)
    SPI_StructInit                           0x08004ff1   Thumb Code    24  stm32f10x_spi.o(.text)
    I2S_StructInit                           0x08005009   Thumb Code    20  stm32f10x_spi.o(.text)
    SPI_Cmd                                  0x0800501d   Thumb Code    24  stm32f10x_spi.o(.text)
    I2S_Cmd                                  0x08005035   Thumb Code    24  stm32f10x_spi.o(.text)
    SPI_I2S_ITConfig                         0x0800504d   Thumb Code    32  stm32f10x_spi.o(.text)
    SPI_I2S_DMACmd                           0x0800506d   Thumb Code    18  stm32f10x_spi.o(.text)
    SPI_I2S_SendData                         0x0800507f   Thumb Code     4  stm32f10x_spi.o(.text)
    SPI_I2S_ReceiveData                      0x08005083   Thumb Code     6  stm32f10x_spi.o(.text)
    SPI_NSSInternalSoftwareConfig            0x08005089   Thumb Code    30  stm32f10x_spi.o(.text)
    SPI_SSOutputCmd                          0x080050a7   Thumb Code    24  stm32f10x_spi.o(.text)
    SPI_DataSizeConfig                       0x080050bf   Thumb Code    18  stm32f10x_spi.o(.text)
    SPI_TransmitCRC                          0x080050d1   Thumb Code    10  stm32f10x_spi.o(.text)
    SPI_CalculateCRC                         0x080050db   Thumb Code    24  stm32f10x_spi.o(.text)
    SPI_GetCRC                               0x080050f3   Thumb Code    16  stm32f10x_spi.o(.text)
    SPI_GetCRCPolynomial                     0x08005103   Thumb Code     6  stm32f10x_spi.o(.text)
    SPI_BiDirectionalLineConfig              0x08005109   Thumb Code    28  stm32f10x_spi.o(.text)
    SPI_I2S_GetFlagStatus                    0x08005125   Thumb Code    18  stm32f10x_spi.o(.text)
    SPI_I2S_ClearFlag                        0x08005137   Thumb Code     6  stm32f10x_spi.o(.text)
    SPI_I2S_GetITStatus                      0x0800513d   Thumb Code    52  stm32f10x_spi.o(.text)
    SPI_I2S_ClearITPendingBit                0x08005171   Thumb Code    20  stm32f10x_spi.o(.text)
    USART_DeInit                             0x08005199   Thumb Code   134  stm32f10x_usart.o(.text)
    USART_Init                               0x0800521f   Thumb Code   210  stm32f10x_usart.o(.text)
    USART_StructInit                         0x080052f1   Thumb Code    24  stm32f10x_usart.o(.text)
    USART_ClockInit                          0x08005309   Thumb Code    34  stm32f10x_usart.o(.text)
    USART_ClockStructInit                    0x0800532b   Thumb Code    12  stm32f10x_usart.o(.text)
    USART_Cmd                                0x08005337   Thumb Code    24  stm32f10x_usart.o(.text)
    USART_ITConfig                           0x0800534f   Thumb Code    74  stm32f10x_usart.o(.text)
    USART_DMACmd                             0x08005399   Thumb Code    18  stm32f10x_usart.o(.text)
    USART_SetAddress                         0x080053ab   Thumb Code    18  stm32f10x_usart.o(.text)
    USART_WakeUpConfig                       0x080053bd   Thumb Code    18  stm32f10x_usart.o(.text)
    USART_ReceiverWakeUpCmd                  0x080053cf   Thumb Code    24  stm32f10x_usart.o(.text)
    USART_LINBreakDetectLengthConfig         0x080053e7   Thumb Code    18  stm32f10x_usart.o(.text)
    USART_LINCmd                             0x080053f9   Thumb Code    24  stm32f10x_usart.o(.text)
    USART_SendData                           0x08005411   Thumb Code     8  stm32f10x_usart.o(.text)
    USART_ReceiveData                        0x08005419   Thumb Code    10  stm32f10x_usart.o(.text)
    USART_SendBreak                          0x08005423   Thumb Code    10  stm32f10x_usart.o(.text)
    USART_SetGuardTime                       0x0800542d   Thumb Code    16  stm32f10x_usart.o(.text)
    USART_SetPrescaler                       0x0800543d   Thumb Code    16  stm32f10x_usart.o(.text)
    USART_SmartCardCmd                       0x0800544d   Thumb Code    24  stm32f10x_usart.o(.text)
    USART_SmartCardNACKCmd                   0x08005465   Thumb Code    24  stm32f10x_usart.o(.text)
    USART_HalfDuplexCmd                      0x0800547d   Thumb Code    24  stm32f10x_usart.o(.text)
    USART_OverSampling8Cmd                   0x08005495   Thumb Code    22  stm32f10x_usart.o(.text)
    USART_OneBitMethodCmd                    0x080054ab   Thumb Code    24  stm32f10x_usart.o(.text)
    USART_IrDAConfig                         0x080054c3   Thumb Code    18  stm32f10x_usart.o(.text)
    USART_IrDACmd                            0x080054d5   Thumb Code    24  stm32f10x_usart.o(.text)
    USART_GetFlagStatus                      0x080054ed   Thumb Code    26  stm32f10x_usart.o(.text)
    USART_ClearFlag                          0x08005507   Thumb Code    18  stm32f10x_usart.o(.text)
    USART_GetITStatus                        0x08005519   Thumb Code    84  stm32f10x_usart.o(.text)
    USART_ClearITPendingBit                  0x0800556d   Thumb Code    52  stm32f10x_usart.o(.text)
    SystemInit                               0x080056b1   Thumb Code    92  system_stm32f10x.o(.text)
    SystemCoreClockUpdate                    0x0800570d   Thumb Code   232  system_stm32f10x.o(.text)
    _sys_exit                                0x08005821   Thumb Code     4  usartdrive.o(.text)
    fputc                                    0x08005825   Thumb Code    24  usartdrive.o(.text)
    USART1_Init                              0x0800583d   Thumb Code   174  usartdrive.o(.text)
    uartTimeDelayInc                         0x080058eb   Thumb Code    24  usartdrive.o(.text)
    USART1_IRQHandler                        0x08005903   Thumb Code    74  usartdrive.o(.text)
    USART2_Init                              0x0800594d   Thumb Code   170  usartdrive.o(.text)
    USART2_IRQHandler                        0x080059f7   Thumb Code     2  usartdrive.o(.text)
    USART3_Init                              0x080059f9   Thumb Code   174  usartdrive.o(.text)
    USART5_Init                              0x08005aa7   Thumb Code   178  usartdrive.o(.text)
    BtuartTimeDelayInc                       0x08005b59   Thumb Code    24  usartdrive.o(.text)
    UART5_IRQHandler                         0x08005b71   Thumb Code    76  usartdrive.o(.text)
    UartSendByte                             0x08005bbd   Thumb Code   184  usartdrive.o(.text)
    BSP_USART_Init                           0x08005c75   Thumb Code    36  usartdrive.o(.text)
    SPI_FLASH_Init                           0x08005c99   Thumb Code   180  w25xx.o(.text)
    SPI_FLASH_SendByte                       0x08005d4d   Thumb Code    74  w25xx.o(.text)
    SPI_FLASH_Get_Byte                       0x08005d97   Thumb Code    10  w25xx.o(.text)
    w25xx_erase                              0x08005eb5   Thumb Code    74  w25xx.o(.text)
    w25xx_read                               0x08005eff   Thumb Code    84  w25xx.o(.text)
    w25xx_write                              0x08005f53   Thumb Code   204  w25xx.o(.text)
    SPI_FLASH_CheckID                        0x0800601f   Thumb Code    46  w25xx.o(.text)
    NandFlashInit                            0x0800604d   Thumb Code    12  w25xx.o(.text)
    w25xx_test                               0x08006059   Thumb Code   238  w25xx.o(.text)
    bt_wakeup_dly                            0x08006165   Thumb Code     2  bt_driver.o(.text)
    bt_sleep_run                             0x08006167   Thumb Code     2  bt_driver.o(.text)
    bt_sleep_set                             0x08006169   Thumb Code     2  bt_driver.o(.text)
    bt_PowerCtrIOInit                        0x0800616b   Thumb Code    76  bt_driver.o(.text)
    bt_PowerOn                               0x080061b7   Thumb Code    26  bt_driver.o(.text)
    bt_PowerOff                              0x080061d1   Thumb Code    26  bt_driver.o(.text)
    get_PayloadDataSum                       0x080061eb   Thumb Code    36  bt_driver.o(.text)
    bt_GetLinkState                          0x0800620f   Thumb Code    46  bt_driver.o(.text)
    bt_macAddrCmp                            0x0800623d   Thumb Code    34  bt_driver.o(.text)
    bt_lookatNullMACAddr                     0x0800625f   Thumb Code   194  bt_driver.o(.text)
    bt_lookatConnect                         0x08006321   Thumb Code    88  bt_driver.o(.text)
    bt_CommandPack                           0x08006379   Thumb Code   172  bt_driver.o(.text)
    bt_enableCheckSum                        0x08006425   Thumb Code    20  bt_driver.o(.text)
    bt_onlyCommand                           0x08006439   Thumb Code    16  bt_driver.o(.text)
    bt_SendCommand                           0x08006449   Thumb Code   104  bt_driver.o(.text)
    bt_ProtocolFormatPack                    0x080064b1   Thumb Code   364  bt_driver.o(.text)
    bt_sendDataSet                           0x0800661d   Thumb Code   154  bt_driver.o(.text)
    bt_SendData                              0x080066b7   Thumb Code   320  bt_driver.o(.text)
    bt_recv_CheckSumAck                      0x080067f7   Thumb Code    24  bt_driver.o(.text)
    bt_recv_queryLinkState                   0x0800680f   Thumb Code   366  bt_driver.o(.text)
    bt_recv_DataAnalysis                     0x0800697d   Thumb Code   738  bt_driver.o(.text)
    bt_rece_version                          0x08006c5f   Thumb Code    56  bt_driver.o(.text)
    bt_recv_readName                         0x08006c97   Thumb Code   194  bt_driver.o(.text)
    bt_recv_CommandAnalysis                  0x08006d59   Thumb Code   124  bt_driver.o(.text)
    bt_rece_parse                            0x08006dd5   Thumb Code   630  bt_driver.o(.text)
    bt_FormatAnalysis                        0x0800704b   Thumb Code    46  bt_driver.o(.text)
    bt_QueryLinkCommand                      0x08007079   Thumb Code   198  bt_driver.o(.text)
    bt_poll                                  0x0800713f   Thumb Code   706  bt_driver.o(.text)
    STM_RESET_DOG                            0x08007409   Thumb Code    10  sys.o(.text)
    STM32_GPIOx_Init                         0x08007413   Thumb Code    48  sys.o(.text)
    STM32_Flash_Capacity                     0x08007443   Thumb Code   154  sys.o(.text)
    STM32_CPUID                              0x080074dd   Thumb Code    20  sys.o(.text)
    MY_NVIC_SetVectorTable                   0x080074f1   Thumb Code    14  sys.o(.text)
    MY_NVIC_PriorityGroup_Config             0x080074ff   Thumb Code    12  sys.o(.text)
    MY_NVIC_Init                             0x0800750b   Thumb Code    42  sys.o(.text)
    MY_RCC_DeInit                            0x08007535   Thumb Code    90  sys.o(.text)
    SYS_Standby                              0x0800758f   Thumb Code    68  sys.o(.text)
    SYS_SoftReset                            0x080075d3   Thumb Code    10  sys.o(.text)
    STM_JTAG_Set                             0x080075dd   Thumb Code    36  sys.o(.text)
    STM_Clock_Init                           0x08007601   Thumb Code   134  sys.o(.text)
    BCD_to_HEX                               0x08007687   Thumb Code    26  sys.o(.text)
    HEX_to_BCD                               0x080076a1   Thumb Code    20  sys.o(.text)
    DX_to_HX                                 0x080076b5   Thumb Code    70  sys.o(.text)
    HX_to_DX                                 0x080076fb   Thumb Code    48  sys.o(.text)
    __2sprintf                               0x08007761   Thumb Code    38  __2sprintf.o(.text)
    _printf_pre_padding                      0x0800778d   Thumb Code    44  _printf_pad.o(.text)
    _printf_post_padding                     0x080077b9   Thumb Code    34  _printf_pad.o(.text)
    _printf_str                              0x080077db   Thumb Code    82  _printf_str.o(.text)
    _printf_int_dec                          0x0800782d   Thumb Code   104  _printf_dec.o(.text)
    _printf_longlong_hex                     0x080078a5   Thumb Code    86  _printf_hex_int_ll_ptr.o(.text)
    _printf_int_hex                          0x080078fb   Thumb Code    28  _printf_hex_int_ll_ptr.o(.text)
    _printf_ll_hex                           0x08007917   Thumb Code    12  _printf_hex_int_ll_ptr.o(.text)
    _printf_hex_ptr                          0x08007923   Thumb Code    18  _printf_hex_int_ll_ptr.o(.text)
    __printf                                 0x08007939   Thumb Code   388  __printf_flags_ss_wp.o(.text)
    atoi                                     0x08007ac1   Thumb Code    26  atoi.o(.text)
    strstr                                   0x08007adb   Thumb Code    36  strstr.o(.text)
    memcmp                                   0x08007aff   Thumb Code    88  memcmp.o(.text)
    strcpy                                   0x08007b57   Thumb Code    72  strcpy.o(.text)
    strlen                                   0x08007b9f   Thumb Code    62  strlen.o(.text)
    __aeabi_memcpy                           0x08007bdd   Thumb Code     0  rt_memcpy_v6.o(.text)
    __rt_memcpy                              0x08007bdd   Thumb Code   138  rt_memcpy_v6.o(.text)
    _memcpy_lastbytes                        0x08007c43   Thumb Code     0  rt_memcpy_v6.o(.text)
    __aeabi_memclr4                          0x08007c67   Thumb Code     0  rt_memclr_w.o(.text)
    __aeabi_memclr8                          0x08007c67   Thumb Code     0  rt_memclr_w.o(.text)
    __rt_memclr_w                            0x08007c67   Thumb Code    78  rt_memclr_w.o(.text)
    _memset_w                                0x08007c6b   Thumb Code     0  rt_memclr_w.o(.text)
    _printf_truncate_signed                  0x08007cb5   Thumb Code    18  _printf_truncate.o(.text)
    _printf_truncate_unsigned                0x08007cc7   Thumb Code    18  _printf_truncate.o(.text)
    _printf_int_common                       0x08007cd9   Thumb Code   178  _printf_intcommon.o(.text)
    _printf_charcount                        0x08007d8b   Thumb Code    40  _printf_charcount.o(.text)
    _printf_char_common                      0x08007dbf   Thumb Code    32  _printf_char_common.o(.text)
    _sputc                                   0x08007de5   Thumb Code    10  _sputc.o(.text)
    _printf_cs_common                        0x08007def   Thumb Code    20  _printf_char.o(.text)
    _printf_char                             0x08007e03   Thumb Code    16  _printf_char.o(.text)
    _printf_string                           0x08007e13   Thumb Code     8  _printf_char.o(.text)
    _printf_char_file                        0x08007e1d   Thumb Code    32  _printf_char_file.o(.text)
    _printf_wctomb                           0x08007e41   Thumb Code   182  _printf_wctomb.o(.text)
    _printf_longlong_dec                     0x08007efd   Thumb Code   108  _printf_longlong_dec.o(.text)
    _printf_longlong_oct                     0x08007f79   Thumb Code    66  _printf_oct_int_ll.o(.text)
    _printf_int_oct                          0x08007fbb   Thumb Code    24  _printf_oct_int_ll.o(.text)
    _printf_ll_oct                           0x08007fd3   Thumb Code    12  _printf_oct_int_ll.o(.text)
    strtol                                   0x08007fe9   Thumb Code   112  strtol.o(.text)
    __aeabi_memcpy4                          0x08008059   Thumb Code     0  rt_memcpy_w.o(.text)
    __aeabi_memcpy8                          0x08008059   Thumb Code     0  rt_memcpy_w.o(.text)
    __rt_memcpy_w                            0x08008059   Thumb Code   100  rt_memcpy_w.o(.text)
    _memcpy_lastbytes_aligned                0x080080a1   Thumb Code     0  rt_memcpy_w.o(.text)
    __rt_ctype_table                         0x080080bd   Thumb Code    16  rt_ctype_table.o(.text)
    _ll_udiv10                               0x080080cd   Thumb Code   138  lludiv10.o(.text)
    __lib_sel_fp_printf                      0x08008157   Thumb Code     2  _printf_fp_dec.o(.text)
    _printf_fp_dec_real                      0x08008309   Thumb Code   620  _printf_fp_dec.o(.text)
    _printf_lcs_common                       0x08008575   Thumb Code    20  _printf_wchar.o(.text)
    _printf_wchar                            0x08008589   Thumb Code    16  _printf_wchar.o(.text)
    _printf_wstring                          0x08008599   Thumb Code     8  _printf_wchar.o(.text)
    _strtoul                                 0x080085a1   Thumb Code   158  _strtoul.o(.text)
    ferror                                   0x0800863f   Thumb Code     8  ferror.o(.text)
    _wcrtomb                                 0x08008647   Thumb Code    64  _wcrtomb.o(.text)
    __user_setup_stackheap                   0x08008687   Thumb Code    74  sys_stackheap_outer.o(.text)
    __rt_locale                              0x080086d1   Thumb Code     8  rt_locale_intlibspace.o(.text)
    _printf_fp_infnan                        0x080086d9   Thumb Code   112  _printf_fp_infnan.o(.text)
    _chval                                   0x08008759   Thumb Code    28  _chval.o(.text)
    _btod_etento                             0x08008775   Thumb Code   224  bigflt0.o(.text)
    exit                                     0x08008859   Thumb Code    18  exit.o(.text)
    strcmp                                   0x0800886d   Thumb Code   128  strcmpv7m.o(.text)
    _btod_d2e                                0x080088ed   Thumb Code    62  btod.o(CL$$btod_d2e)
    _d2e_denorm_low                          0x0800892b   Thumb Code    70  btod.o(CL$$btod_d2e_denorm_low)
    _d2e_norm_op1                            0x08008971   Thumb Code    96  btod.o(CL$$btod_d2e_norm_op1)
    __btod_div_common                        0x080089d1   Thumb Code   696  btod.o(CL$$btod_div_common)
    _e2e                                     0x08008d09   Thumb Code   220  btod.o(CL$$btod_e2e)
    _btod_ediv                               0x08008de5   Thumb Code    42  btod.o(CL$$btod_ediv)
    _btod_emul                               0x08008e0f   Thumb Code    42  btod.o(CL$$btod_emul)
    __btod_mult_common                       0x08008e39   Thumb Code   580  btod.o(CL$$btod_mult_common)
    __ARM_fpclassify                         0x0800907d   Thumb Code    40  fpclassify.o(i.__ARM_fpclassify)
    _is_digit                                0x080090a5   Thumb Code    14  __printf_wp.o(i._is_digit)
    _get_lc_ctype                            0x080090b5   Thumb Code    44  lc_ctype_c.o(locale$$code)
    _get_lc_numeric                          0x080090e1   Thumb Code    44  lc_numeric_c.o(locale$$code)
    __aeabi_dadd                             0x0800910d   Thumb Code     0  daddsub_clz.o(x$fpl$dadd)
    _dadd                                    0x0800910d   Thumb Code   332  daddsub_clz.o(x$fpl$dadd)
    __aeabi_d2uiz                            0x0800925d   Thumb Code     0  dfixu.o(x$fpl$dfixu)
    _dfixu                                   0x0800925d   Thumb Code    90  dfixu.o(x$fpl$dfixu)
    __aeabi_ui2d                             0x080092b7   Thumb Code     0  dflt_clz.o(x$fpl$dfltu)
    _dfltu                                   0x080092b7   Thumb Code    38  dflt_clz.o(x$fpl$dfltu)
    __aeabi_dmul                             0x080092dd   Thumb Code     0  dmul.o(x$fpl$dmul)
    _dmul                                    0x080092dd   Thumb Code   332  dmul.o(x$fpl$dmul)
    __fpl_dnaninf                            0x08009431   Thumb Code   156  dnaninf.o(x$fpl$dnaninf)
    __fpl_dretinf                            0x080094cd   Thumb Code    12  dretinf.o(x$fpl$dretinf)
    __aeabi_dsub                             0x080094d9   Thumb Code     0  daddsub_clz.o(x$fpl$dsub)
    _dsub                                    0x080094d9   Thumb Code   464  daddsub_clz.o(x$fpl$dsub)
    _printf_fp_dec                           0x080096ad   Thumb Code     4  printf1.o(x$fpl$printf1)
    __I$use$fp                               0x080096b0   Number         0  usenofp.o(x$fpl$usenofp)
    Region$$Table$$Base                      0x08009ba8   Number         0  anon$$obj.o(Region$$Table)
    Region$$Table$$Limit                     0x08009bc8   Number         0  anon$$obj.o(Region$$Table)
    __ctype                                  0x08009bd5   Data           0  lc_ctype_c.o(locale$$data)
    dbg_en                                   0x20000000   Data           4  dbg.o(.data)
    dbg_tmr                                  0x20000004   Data           4  dbg.o(.data)
    BuzzConfig                               0x20000008   Data           8  led.o(.data)
    Power12v                                 0x20000016   Data           2  main.o(.data)
    SystemCoreClock                          0x20000030   Data           4  system_stm32f10x.o(.data)
    AHBPrescTable                            0x20000034   Data          16  system_stm32f10x.o(.data)
    USART1_iTail                             0x20000044   Data           2  usartdrive.o(.data)
    USART1_iHead                             0x20000046   Data           2  usartdrive.o(.data)
    USART2_iTail                             0x20000048   Data           2  usartdrive.o(.data)
    USART2_iHead                             0x2000004a   Data           2  usartdrive.o(.data)
    USART3_iTail                             0x2000004c   Data           2  usartdrive.o(.data)
    USART3_iHead                             0x2000004e   Data           2  usartdrive.o(.data)
    __stdout                                 0x20000050   Data           4  usartdrive.o(.data)
    uartTimeDelay                            0x20000054   Data           4  usartdrive.o(.data)
    btRenameDone                             0x2000006a   Data           1  bt_driver.o(.data)
    BtuartTimeDelay                          0x2000006c   Data           4  bt_driver.o(.data)
    BtInitFlag                               0x20000070   Data           1  bt_driver.o(.data)
    bt_sleep                                 0x20000078   Data           8  bt_driver.o(.data)
    LedConfig                                0x20000298   Data          12  led.o(.bss)
    SysRtcTime                               0x200002a4   Data          18  rtc.o(.bss)
    USART1_RX_BUF                            0x200002b6   Data        1024  usartdrive.o(.bss)
    USART2_RX_BUF                            0x200006b6   Data        1024  usartdrive.o(.bss)
    USART3_RX_BUF                            0x20000ab6   Data        1024  usartdrive.o(.bss)
    w25n                                     0x20000eb8   Data        4124  w25xx.o(.bss)
    d_head                                   0x20001ed4   Data          12  bt_driver.o(.bss)
    btDeviceName                             0x20001ee0   Data          27  bt_driver.o(.bss)
    bt_Message                               0x20001efc   Data        5214  bt_driver.o(.bss)
    btBuf                                    0x2000335a   Data        1028  bt_driver.o(.bss)
    __libspace_start                         0x200039e0   Data          96  libspace.o(.bss)
    __temporary_stack_top$libspace           0x20003a40   Data           0  libspace.o(.bss)



==============================================================================

Memory Map of the image

  Image Entry point : 0x08002951

  Load Region LR_IROM1 (Base: 0x08002800, Size: 0x0000758c, Max: 0x00040000, ABSOLUTE)

    Execution Region ER_IROM1 (Exec base: 0x08002800, Load base: 0x08002800, Size: 0x000074f4, Max: 0x00040000, ABSOLUTE)

    Exec Addr    Load Addr    Size         Type   Attr      Idx    E Section Name        Object

    0x08002800   0x08002800   0x00000150   Data   RO            3    RESET               startup_stm32f10x_cl.o
    0x08002950   0x08002950   0x00000008   Code   RO          749  * !!!main             c_w.l(__main.o)
    0x08002958   0x08002958   0x00000034   Code   RO         1047    !!!scatter          c_w.l(__scatter.o)
    0x0800298c   0x0800298c   0x0000001a   Code   RO         1049    !!handler_copy      c_w.l(__scatter_copy.o)
    0x080029a6   0x080029a6   0x00000002   PAD
    0x080029a8   0x080029a8   0x0000001c   Code   RO         1051    !!handler_zi        c_w.l(__scatter_zi.o)
    0x080029c4   0x080029c4   0x00000000   Code   RO          732    .ARM.Collect$$_printf_percent$$00000000  c_w.l(_printf_percent.o)
    0x080029c4   0x080029c4   0x00000006   Code   RO          803    .ARM.Collect$$_printf_percent$$00000001  c_w.l(_printf_n.o)
    0x080029ca   0x080029ca   0x00000006   Code   RO          804    .ARM.Collect$$_printf_percent$$00000002  c_w.l(_printf_p.o)
    0x080029d0   0x080029d0   0x00000006   Code   RO          808    .ARM.Collect$$_printf_percent$$00000003  c_w.l(_printf_f.o)
    0x080029d6   0x080029d6   0x00000006   Code   RO          809    .ARM.Collect$$_printf_percent$$00000004  c_w.l(_printf_e.o)
    0x080029dc   0x080029dc   0x00000006   Code   RO          810    .ARM.Collect$$_printf_percent$$00000005  c_w.l(_printf_g.o)
    0x080029e2   0x080029e2   0x00000006   Code   RO          811    .ARM.Collect$$_printf_percent$$00000006  c_w.l(_printf_a.o)
    0x080029e8   0x080029e8   0x0000000a   Code   RO          816    .ARM.Collect$$_printf_percent$$00000007  c_w.l(_printf_ll.o)
    0x080029f2   0x080029f2   0x00000006   Code   RO          806    .ARM.Collect$$_printf_percent$$00000008  c_w.l(_printf_i.o)
    0x080029f8   0x080029f8   0x00000006   Code   RO          731    .ARM.Collect$$_printf_percent$$00000009  c_w.l(_printf_d.o)
    0x080029fe   0x080029fe   0x00000006   Code   RO          807    .ARM.Collect$$_printf_percent$$0000000A  c_w.l(_printf_u.o)
    0x08002a04   0x08002a04   0x00000006   Code   RO          805    .ARM.Collect$$_printf_percent$$0000000B  c_w.l(_printf_o.o)
    0x08002a0a   0x08002a0a   0x00000006   Code   RO          730    .ARM.Collect$$_printf_percent$$0000000C  c_w.l(_printf_x.o)
    0x08002a10   0x08002a10   0x00000006   Code   RO          813    .ARM.Collect$$_printf_percent$$0000000D  c_w.l(_printf_lli.o)
    0x08002a16   0x08002a16   0x00000006   Code   RO          814    .ARM.Collect$$_printf_percent$$0000000E  c_w.l(_printf_lld.o)
    0x08002a1c   0x08002a1c   0x00000006   Code   RO          815    .ARM.Collect$$_printf_percent$$0000000F  c_w.l(_printf_llu.o)
    0x08002a22   0x08002a22   0x00000006   Code   RO          820    .ARM.Collect$$_printf_percent$$00000010  c_w.l(_printf_llo.o)
    0x08002a28   0x08002a28   0x00000006   Code   RO          821    .ARM.Collect$$_printf_percent$$00000011  c_w.l(_printf_llx.o)
    0x08002a2e   0x08002a2e   0x0000000a   Code   RO          817    .ARM.Collect$$_printf_percent$$00000012  c_w.l(_printf_l.o)
    0x08002a38   0x08002a38   0x00000006   Code   RO          802    .ARM.Collect$$_printf_percent$$00000013  c_w.l(_printf_c.o)
    0x08002a3e   0x08002a3e   0x00000006   Code   RO          729    .ARM.Collect$$_printf_percent$$00000014  c_w.l(_printf_s.o)
    0x08002a44   0x08002a44   0x00000006   Code   RO          818    .ARM.Collect$$_printf_percent$$00000015  c_w.l(_printf_lc.o)
    0x08002a4a   0x08002a4a   0x00000006   Code   RO          819    .ARM.Collect$$_printf_percent$$00000016  c_w.l(_printf_ls.o)
    0x08002a50   0x08002a50   0x00000004   Code   RO          812    .ARM.Collect$$_printf_percent$$00000017  c_w.l(_printf_percent_end.o)
    0x08002a54   0x08002a54   0x00000002   Code   RO          918    .ARM.Collect$$libinit$$00000000  c_w.l(libinit.o)
    0x08002a56   0x08002a56   0x00000000   Code   RO          928    .ARM.Collect$$libinit$$00000002  c_w.l(libinit2.o)
    0x08002a56   0x08002a56   0x00000000   Code   RO          930    .ARM.Collect$$libinit$$00000004  c_w.l(libinit2.o)
    0x08002a56   0x08002a56   0x00000000   Code   RO          933    .ARM.Collect$$libinit$$0000000A  c_w.l(libinit2.o)
    0x08002a56   0x08002a56   0x00000000   Code   RO          935    .ARM.Collect$$libinit$$0000000C  c_w.l(libinit2.o)
    0x08002a56   0x08002a56   0x00000000   Code   RO          937    .ARM.Collect$$libinit$$0000000E  c_w.l(libinit2.o)
    0x08002a56   0x08002a56   0x00000006   Code   RO          938    .ARM.Collect$$libinit$$0000000F  c_w.l(libinit2.o)
    0x08002a5c   0x08002a5c   0x00000000   Code   RO          940    .ARM.Collect$$libinit$$00000011  c_w.l(libinit2.o)
    0x08002a5c   0x08002a5c   0x0000000c   Code   RO          941    .ARM.Collect$$libinit$$00000012  c_w.l(libinit2.o)
    0x08002a68   0x08002a68   0x00000000   Code   RO          942    .ARM.Collect$$libinit$$00000013  c_w.l(libinit2.o)
    0x08002a68   0x08002a68   0x00000000   Code   RO          944    .ARM.Collect$$libinit$$00000015  c_w.l(libinit2.o)
    0x08002a68   0x08002a68   0x0000000a   Code   RO          945    .ARM.Collect$$libinit$$00000016  c_w.l(libinit2.o)
    0x08002a72   0x08002a72   0x00000000   Code   RO          946    .ARM.Collect$$libinit$$00000017  c_w.l(libinit2.o)
    0x08002a72   0x08002a72   0x00000000   Code   RO          948    .ARM.Collect$$libinit$$00000019  c_w.l(libinit2.o)
    0x08002a72   0x08002a72   0x00000000   Code   RO          950    .ARM.Collect$$libinit$$0000001B  c_w.l(libinit2.o)
    0x08002a72   0x08002a72   0x00000000   Code   RO          952    .ARM.Collect$$libinit$$0000001D  c_w.l(libinit2.o)
    0x08002a72   0x08002a72   0x00000000   Code   RO          954    .ARM.Collect$$libinit$$0000001F  c_w.l(libinit2.o)
    0x08002a72   0x08002a72   0x00000000   Code   RO          956    .ARM.Collect$$libinit$$00000021  c_w.l(libinit2.o)
    0x08002a72   0x08002a72   0x00000000   Code   RO          958    .ARM.Collect$$libinit$$00000023  c_w.l(libinit2.o)
    0x08002a72   0x08002a72   0x00000000   Code   RO          960    .ARM.Collect$$libinit$$00000025  c_w.l(libinit2.o)
    0x08002a72   0x08002a72   0x00000000   Code   RO          964    .ARM.Collect$$libinit$$0000002C  c_w.l(libinit2.o)
    0x08002a72   0x08002a72   0x00000000   Code   RO          966    .ARM.Collect$$libinit$$0000002E  c_w.l(libinit2.o)
    0x08002a72   0x08002a72   0x00000000   Code   RO          968    .ARM.Collect$$libinit$$00000030  c_w.l(libinit2.o)
    0x08002a72   0x08002a72   0x00000000   Code   RO          970    .ARM.Collect$$libinit$$00000032  c_w.l(libinit2.o)
    0x08002a72   0x08002a72   0x00000002   Code   RO          971    .ARM.Collect$$libinit$$00000033  c_w.l(libinit2.o)
    0x08002a74   0x08002a74   0x00000002   Code   RO          989    .ARM.Collect$$libshutdown$$00000000  c_w.l(libshutdown.o)
    0x08002a76   0x08002a76   0x00000000   Code   RO          999    .ARM.Collect$$libshutdown$$00000002  c_w.l(libshutdown2.o)
    0x08002a76   0x08002a76   0x00000000   Code   RO         1001    .ARM.Collect$$libshutdown$$00000004  c_w.l(libshutdown2.o)
    0x08002a76   0x08002a76   0x00000000   Code   RO         1004    .ARM.Collect$$libshutdown$$00000007  c_w.l(libshutdown2.o)
    0x08002a76   0x08002a76   0x00000000   Code   RO         1007    .ARM.Collect$$libshutdown$$0000000A  c_w.l(libshutdown2.o)
    0x08002a76   0x08002a76   0x00000000   Code   RO         1009    .ARM.Collect$$libshutdown$$0000000C  c_w.l(libshutdown2.o)
    0x08002a76   0x08002a76   0x00000000   Code   RO         1012    .ARM.Collect$$libshutdown$$0000000F  c_w.l(libshutdown2.o)
    0x08002a76   0x08002a76   0x00000002   Code   RO         1013    .ARM.Collect$$libshutdown$$00000010  c_w.l(libshutdown2.o)
    0x08002a78   0x08002a78   0x00000000   Code   RO          771    .ARM.Collect$$rtentry$$00000000  c_w.l(__rtentry.o)
    0x08002a78   0x08002a78   0x00000000   Code   RO          837    .ARM.Collect$$rtentry$$00000002  c_w.l(__rtentry2.o)
    0x08002a78   0x08002a78   0x00000006   Code   RO          849    .ARM.Collect$$rtentry$$00000004  c_w.l(__rtentry4.o)
    0x08002a7e   0x08002a7e   0x00000000   Code   RO          839    .ARM.Collect$$rtentry$$00000009  c_w.l(__rtentry2.o)
    0x08002a7e   0x08002a7e   0x00000004   Code   RO          840    .ARM.Collect$$rtentry$$0000000A  c_w.l(__rtentry2.o)
    0x08002a82   0x08002a82   0x00000000   Code   RO          842    .ARM.Collect$$rtentry$$0000000C  c_w.l(__rtentry2.o)
    0x08002a82   0x08002a82   0x00000008   Code   RO          843    .ARM.Collect$$rtentry$$0000000D  c_w.l(__rtentry2.o)
    0x08002a8a   0x08002a8a   0x00000002   Code   RO          923    .ARM.Collect$$rtexit$$00000000  c_w.l(rtexit.o)
    0x08002a8c   0x08002a8c   0x00000000   Code   RO          973    .ARM.Collect$$rtexit$$00000002  c_w.l(rtexit2.o)
    0x08002a8c   0x08002a8c   0x00000004   Code   RO          974    .ARM.Collect$$rtexit$$00000003  c_w.l(rtexit2.o)
    0x08002a90   0x08002a90   0x00000006   Code   RO          975    .ARM.Collect$$rtexit$$00000004  c_w.l(rtexit2.o)
    0x08002a96   0x08002a96   0x00000002   PAD
    0x08002a98   0x08002a98   0x00000002   Code   RO          646    .emb_text           sys.o
    0x08002a9a   0x08002a9a   0x00000002   PAD
    0x08002a9c   0x08002a9c   0x00000040   Code   RO            4    .text               startup_stm32f10x_cl.o
    0x08002adc   0x08002adc   0x00000284   Code   RO           24    .text               dbg.o
    0x08002d60   0x08002d60   0x00000208   Code   RO          182    .text               led.o
    0x08002f68   0x08002f68   0x00000040   Code   RO          455    .text               stm32f10x_iwdg.o
    0x08002fa8   0x08002fa8   0x00000002   Code   RO          668    .text               c_w.l(use_no_semi_2.o)
    0x08002faa   0x08002faa   0x00000002   PAD
    0x08002fac   0x08002fac   0x00000024   Code   RO          670    .text               c_w.l(c89vsprintf.o)
    0x08002fd0   0x08002fd0   0x00000018   Code   RO          672    .text               c_w.l(__2printf.o)
    0x08002fe8   0x08002fe8   0x00000006   Code   RO          747    .text               c_w.l(heapauxi.o)
    0x08002fee   0x08002fee   0x00000002   Code   RO          769    .text               c_w.l(use_no_semi.o)
    0x08002ff0   0x08002ff0   0x00000008   Code   RO          775    .text               c_w.l(rt_errno_addr_intlibspace.o)
    0x08002ff8   0x08002ff8   0x00000008   Code   RO          833    .text               c_w.l(libspace.o)
    0x08003000   0x08003000   0x00000040   Data   RO          210    .ARM.__AT_0x08003000  main.o
    0x08003040   0x08003040   0x0000032c   Code   RO          209    .text               main.o
    0x0800336c   0x0800336c   0x000000dc   Code   RO          236    .text               misc.o
    0x08003448   0x08003448   0x00000488   Code   RO          267    .text               rtc.o
    0x080038d0   0x080038d0   0x0000044e   Code   RO          287    .text               stm32f10x_adc.o
    0x08003d1e   0x08003d1e   0x00000002   PAD
    0x08003d20   0x08003d20   0x000000c4   Code   RO          299    .text               stm32f10x_bkp.o
    0x08003de4   0x08003de4   0x0000035c   Code   RO          419    .text               stm32f10x_gpio.o
    0x08004140   0x08004140   0x000005f0   Code   RO          443    .text               stm32f10x_it.o
    0x08004730   0x08004730   0x000000cc   Code   RO          467    .text               stm32f10x_pwr.o
    0x080047fc   0x080047fc   0x00000500   Code   RO          479    .text               stm32f10x_rcc.o
    0x08004cfc   0x08004cfc   0x00000148   Code   RO          493    .text               stm32f10x_rtc.o
    0x08004e44   0x08004e44   0x00000354   Code   RO          517    .text               stm32f10x_spi.o
    0x08005198   0x08005198   0x00000408   Code   RO          541    .text               stm32f10x_usart.o
    0x080055a0   0x080055a0   0x00000280   Code   RO          565    .text               system_stm32f10x.o
    0x08005820   0x08005820   0x00000478   Code   RO          583    .text               usartdrive.o
    0x08005c98   0x08005c98   0x000004cc   Code   RO          607    .text               w25xx.o
    0x08006164   0x08006164   0x000012a4   Code   RO          626    .text               bt_driver.o
    0x08007408   0x08007408   0x00000358   Code   RO          647    .text               sys.o
    0x08007760   0x08007760   0x0000002c   Code   RO          674    .text               c_w.l(__2sprintf.o)
    0x0800778c   0x0800778c   0x0000004e   Code   RO          682    .text               c_w.l(_printf_pad.o)
    0x080077da   0x080077da   0x00000052   Code   RO          684    .text               c_w.l(_printf_str.o)
    0x0800782c   0x0800782c   0x00000078   Code   RO          686    .text               c_w.l(_printf_dec.o)
    0x080078a4   0x080078a4   0x00000094   Code   RO          706    .text               c_w.l(_printf_hex_int_ll_ptr.o)
    0x08007938   0x08007938   0x00000188   Code   RO          726    .text               c_w.l(__printf_flags_ss_wp.o)
    0x08007ac0   0x08007ac0   0x0000001a   Code   RO          733    .text               c_w.l(atoi.o)
    0x08007ada   0x08007ada   0x00000024   Code   RO          735    .text               c_w.l(strstr.o)
    0x08007afe   0x08007afe   0x00000058   Code   RO          737    .text               c_w.l(memcmp.o)
    0x08007b56   0x08007b56   0x00000048   Code   RO          739    .text               c_w.l(strcpy.o)
    0x08007b9e   0x08007b9e   0x0000003e   Code   RO          741    .text               c_w.l(strlen.o)
    0x08007bdc   0x08007bdc   0x0000008a   Code   RO          743    .text               c_w.l(rt_memcpy_v6.o)
    0x08007c66   0x08007c66   0x0000004e   Code   RO          745    .text               c_w.l(rt_memclr_w.o)
    0x08007cb4   0x08007cb4   0x00000024   Code   RO          777    .text               c_w.l(_printf_truncate.o)
    0x08007cd8   0x08007cd8   0x000000b2   Code   RO          779    .text               c_w.l(_printf_intcommon.o)
    0x08007d8a   0x08007d8a   0x00000028   Code   RO          781    .text               c_w.l(_printf_charcount.o)
    0x08007db2   0x08007db2   0x00000002   PAD
    0x08007db4   0x08007db4   0x00000030   Code   RO          783    .text               c_w.l(_printf_char_common.o)
    0x08007de4   0x08007de4   0x0000000a   Code   RO          785    .text               c_w.l(_sputc.o)
    0x08007dee   0x08007dee   0x0000002c   Code   RO          787    .text               c_w.l(_printf_char.o)
    0x08007e1a   0x08007e1a   0x00000002   PAD
    0x08007e1c   0x08007e1c   0x00000024   Code   RO          789    .text               c_w.l(_printf_char_file.o)
    0x08007e40   0x08007e40   0x000000bc   Code   RO          791    .text               c_w.l(_printf_wctomb.o)
    0x08007efc   0x08007efc   0x0000007c   Code   RO          794    .text               c_w.l(_printf_longlong_dec.o)
    0x08007f78   0x08007f78   0x00000070   Code   RO          800    .text               c_w.l(_printf_oct_int_ll.o)
    0x08007fe8   0x08007fe8   0x00000070   Code   RO          822    .text               c_w.l(strtol.o)
    0x08008058   0x08008058   0x00000064   Code   RO          824    .text               c_w.l(rt_memcpy_w.o)
    0x080080bc   0x080080bc   0x00000010   Code   RO          851    .text               c_w.l(rt_ctype_table.o)
    0x080080cc   0x080080cc   0x0000008a   Code   RO          853    .text               c_w.l(lludiv10.o)
    0x08008156   0x08008156   0x0000041e   Code   RO          855    .text               c_w.l(_printf_fp_dec.o)
    0x08008574   0x08008574   0x0000002c   Code   RO          859    .text               c_w.l(_printf_wchar.o)
    0x080085a0   0x080085a0   0x0000009e   Code   RO          861    .text               c_w.l(_strtoul.o)
    0x0800863e   0x0800863e   0x00000008   Code   RO          863    .text               c_w.l(ferror.o)
    0x08008646   0x08008646   0x00000040   Code   RO          867    .text               c_w.l(_wcrtomb.o)
    0x08008686   0x08008686   0x0000004a   Code   RO          869    .text               c_w.l(sys_stackheap_outer.o)
    0x080086d0   0x080086d0   0x00000008   Code   RO          874    .text               c_w.l(rt_locale_intlibspace.o)
    0x080086d8   0x080086d8   0x00000080   Code   RO          876    .text               c_w.l(_printf_fp_infnan.o)
    0x08008758   0x08008758   0x0000001c   Code   RO          878    .text               c_w.l(_chval.o)
    0x08008774   0x08008774   0x000000e4   Code   RO          880    .text               c_w.l(bigflt0.o)
    0x08008858   0x08008858   0x00000012   Code   RO          911    .text               c_w.l(exit.o)
    0x0800886a   0x0800886a   0x00000002   PAD
    0x0800886c   0x0800886c   0x00000080   Code   RO          925    .text               c_w.l(strcmpv7m.o)
    0x080088ec   0x080088ec   0x0000003e   Code   RO          883    CL$$btod_d2e        c_w.l(btod.o)
    0x0800892a   0x0800892a   0x00000046   Code   RO          885    CL$$btod_d2e_denorm_low  c_w.l(btod.o)
    0x08008970   0x08008970   0x00000060   Code   RO          884    CL$$btod_d2e_norm_op1  c_w.l(btod.o)
    0x080089d0   0x080089d0   0x00000338   Code   RO          893    CL$$btod_div_common  c_w.l(btod.o)
    0x08008d08   0x08008d08   0x000000dc   Code   RO          890    CL$$btod_e2e        c_w.l(btod.o)
    0x08008de4   0x08008de4   0x0000002a   Code   RO          887    CL$$btod_ediv       c_w.l(btod.o)
    0x08008e0e   0x08008e0e   0x0000002a   Code   RO          886    CL$$btod_emul       c_w.l(btod.o)
    0x08008e38   0x08008e38   0x00000244   Code   RO          892    CL$$btod_mult_common  c_w.l(btod.o)
    0x0800907c   0x0800907c   0x00000028   Code   RO          921    i.__ARM_fpclassify  m_ws.l(fpclassify.o)
    0x080090a4   0x080090a4   0x0000000e   Code   RO          719    i._is_digit         c_w.l(__printf_wp.o)
    0x080090b2   0x080090b2   0x00000002   PAD
    0x080090b4   0x080090b4   0x0000002c   Code   RO          906    locale$$code        c_w.l(lc_ctype_c.o)
    0x080090e0   0x080090e0   0x0000002c   Code   RO          909    locale$$code        c_w.l(lc_numeric_c.o)
    0x0800910c   0x0800910c   0x00000150   Code   RO          751    x$fpl$dadd          fz_ws.l(daddsub_clz.o)
    0x0800925c   0x0800925c   0x0000005a   Code   RO          757    x$fpl$dfixu         fz_ws.l(dfixu.o)
    0x080092b6   0x080092b6   0x00000026   Code   RO          761    x$fpl$dfltu         fz_ws.l(dflt_clz.o)
    0x080092dc   0x080092dc   0x00000154   Code   RO          767    x$fpl$dmul          fz_ws.l(dmul.o)
    0x08009430   0x08009430   0x0000009c   Code   RO          826    x$fpl$dnaninf       fz_ws.l(dnaninf.o)
    0x080094cc   0x080094cc   0x0000000c   Code   RO          828    x$fpl$dretinf       fz_ws.l(dretinf.o)
    0x080094d8   0x080094d8   0x000001d4   Code   RO          753    x$fpl$dsub          fz_ws.l(daddsub_clz.o)
    0x080096ac   0x080096ac   0x00000004   Code   RO          830    x$fpl$printf1       fz_ws.l(printf1.o)
    0x080096b0   0x080096b0   0x00000000   Code   RO          832    x$fpl$usenofp       fz_ws.l(usenofp.o)
    0x080096b0   0x080096b0   0x0000000c   Data   RO          269    .constdata          rtc.o
    0x080096bc   0x080096bc   0x00000005   Data   RO          628    .constdata          bt_driver.o
    0x080096c1   0x080096c1   0x00000028   Data   RO          707    .constdata          c_w.l(_printf_hex_int_ll_ptr.o)
    0x080096e9   0x080096e9   0x00000011   Data   RO          727    .constdata          c_w.l(__printf_flags_ss_wp.o)
    0x080096fa   0x080096fa   0x00000002   PAD
    0x080096fc   0x080096fc   0x00000008   Data   RO          792    .constdata          c_w.l(_printf_wctomb.o)
    0x08009704   0x08009704   0x00000094   Data   RO          881    .constdata          c_w.l(bigflt0.o)
    0x08009798   0x08009798   0x00000387   Data   RO           26    .conststring        dbg.o
    0x08009b1f   0x08009b1f   0x00000001   PAD
    0x08009b20   0x08009b20   0x00000085   Data   RO          212    .conststring        main.o
    0x08009ba5   0x08009ba5   0x00000003   PAD
    0x08009ba8   0x08009ba8   0x00000020   Data   RO         1045    Region$$Table       anon$$obj.o
    0x08009bc8   0x08009bc8   0x00000110   Data   RO          905    locale$$data        c_w.l(lc_ctype_c.o)
    0x08009cd8   0x08009cd8   0x0000001c   Data   RO          908    locale$$data        c_w.l(lc_numeric_c.o)


    Execution Region RW_IRAM1 (Exec base: 0x20000000, Load base: 0x08009cf4, Size: 0x00004c40, Max: 0x00010000, ABSOLUTE)

    Exec Addr    Load Addr    Size         Type   Attr      Idx    E Section Name        Object

    0x20000000   0x08009cf4   0x00000008   Data   RW           27    .data               dbg.o
    0x20000008   0x08009cfc   0x0000000e   Data   RW          184    .data               led.o
    0x20000016   0x08009d0a   0x00000002   Data   RW          213    .data               main.o
    0x20000018   0x08009d0c   0x00000004   Data   RW          270    .data               rtc.o
    0x2000001c   0x08009d10   0x00000014   Data   RW          480    .data               stm32f10x_rcc.o
    0x20000030   0x08009d24   0x00000014   Data   RW          566    .data               system_stm32f10x.o
    0x20000044   0x08009d38   0x00000014   Data   RW          585    .data               usartdrive.o
    0x20000058   0x08009d4c   0x0000000a   Data   RW          609    .data               w25xx.o
    0x20000062   0x08009d56   0x00000002   PAD
    0x20000064   0x08009d58   0x00000031   Data   RW          629    .data               bt_driver.o
    0x20000095   0x08009d89   0x00000003   PAD
    0x20000098        -       0x00000200   Zero   RW           25    .bss                dbg.o
    0x20000298        -       0x0000000c   Zero   RW          183    .bss                led.o
    0x200002a4        -       0x00000012   Zero   RW          268    .bss                rtc.o
    0x200002b6        -       0x00000c00   Zero   RW          584    .bss                usartdrive.o
    0x20000eb6   0x08009d89   0x00000002   PAD
    0x20000eb8        -       0x0000101c   Zero   RW          608    .bss                w25xx.o
    0x20001ed4        -       0x00001b0a   Zero   RW          627    .bss                bt_driver.o
    0x200039de   0x08009d89   0x00000002   PAD
    0x200039e0        -       0x00000060   Zero   RW          834    .bss                c_w.l(libspace.o)
    0x20003a40        -       0x00000200   Zero   RW            2    HEAP                startup_stm32f10x_cl.o
    0x20003c40        -       0x00001000   Zero   RW            1    STACK               startup_stm32f10x_cl.o


==============================================================================

Image component sizes


      Code (inc. data)   RO Data    RW Data    ZI Data      Debug   Object Name

      4772        574          5         49       6922      12379   bt_driver.o
         0          0          0          0          0       4508   core_cm3.o
       644         78        903          8        512     271668   dbg.o
       520         30          0         14         12       2926   led.o
       812        138        197          2          0       3296   main.o
       220         22          0          0          0     232677   misc.o
      1160         90         12          4         18       4591   rtc.o
        64         26        336          0       4608        868   startup_stm32f10x_cl.o
      1102         26          0          0          0      11041   stm32f10x_adc.o
       196          8          0          0          0       3500   stm32f10x_bkp.o
       860         38          0          0          0       5737   stm32f10x_gpio.o
      1520         26          0          0          0       2183   stm32f10x_it.o
        64          6          0          0          0       1285   stm32f10x_iwdg.o
       204         14          0          0          0       1963   stm32f10x_pwr.o
      1280         60          0         20          0      11354   stm32f10x_rcc.o
       328          4          0          0          0       2734   stm32f10x_rtc.o
       852         20          0          0          0       6666   stm32f10x_spi.o
      1032         22          0          0          0       8460   stm32f10x_usart.o
       858         54          0          0          0       4379   sys.o
       640         44          0         20          0       2067   system_stm32f10x.o
      1144         68          0         20       3072       5971   usartdrive.o
      1228         92          0         10       4124       5888   w25xx.o

    ----------------------------------------------------------------------
     19504       1440       1489        152      19272     606141   Object Totals
         0          0         32          0          0          0   (incl. Generated)
         4          0          4          5          4          0   (incl. Padding)

    ----------------------------------------------------------------------

      Code (inc. data)   RO Data    RW Data    ZI Data      Debug   Library Member Name

        24          4          0          0          0         84   __2printf.o
        44          6          0          0          0         84   __2sprintf.o
         8          0          0          0          0         68   __main.o
       392          4         17          0          0         92   __printf_flags_ss_wp.o
        14          0          0          0          0         68   __printf_wp.o
         0          0          0          0          0          0   __rtentry.o
        12          0          0          0          0          0   __rtentry2.o
         6          0          0          0          0          0   __rtentry4.o
        52          8          0          0          0          0   __scatter.o
        26          0          0          0          0          0   __scatter_copy.o
        28          0          0          0          0          0   __scatter_zi.o
        28          0          0          0          0         68   _chval.o
         6          0          0          0          0          0   _printf_a.o
         6          0          0          0          0          0   _printf_c.o
        44          0          0          0          0        108   _printf_char.o
        48          6          0          0          0         96   _printf_char_common.o
        36          4          0          0          0         80   _printf_char_file.o
        40          0          0          0          0         68   _printf_charcount.o
         6          0          0          0          0          0   _printf_d.o
       120         16          0          0          0         92   _printf_dec.o
         6          0          0          0          0          0   _printf_e.o
         6          0          0          0          0          0   _printf_f.o
      1054          0          0          0          0        216   _printf_fp_dec.o
       128         16          0          0          0         84   _printf_fp_infnan.o
         6          0          0          0          0          0   _printf_g.o
       148          4         40          0          0        160   _printf_hex_int_ll_ptr.o
         6          0          0          0          0          0   _printf_i.o
       178          0          0          0          0         88   _printf_intcommon.o
        10          0          0          0          0          0   _printf_l.o
         6          0          0          0          0          0   _printf_lc.o
        10          0          0          0          0          0   _printf_ll.o
         6          0          0          0          0          0   _printf_lld.o
         6          0          0          0          0          0   _printf_lli.o
         6          0          0          0          0          0   _printf_llo.o
         6          0          0          0          0          0   _printf_llu.o
         6          0          0          0          0          0   _printf_llx.o
       124         16          0          0          0         92   _printf_longlong_dec.o
         6          0          0          0          0          0   _printf_ls.o
         6          0          0          0          0          0   _printf_n.o
         6          0          0          0          0          0   _printf_o.o
       112         10          0          0          0        124   _printf_oct_int_ll.o
         6          0          0          0          0          0   _printf_p.o
        78          0          0          0          0        108   _printf_pad.o
         0          0          0          0          0          0   _printf_percent.o
         4          0          0          0          0          0   _printf_percent_end.o
         6          0          0          0          0          0   _printf_s.o
        82          0          0          0          0         80   _printf_str.o
        36          0          0          0          0         84   _printf_truncate.o
         6          0          0          0          0          0   _printf_u.o
        44          0          0          0          0        108   _printf_wchar.o
       188          6          8          0          0         92   _printf_wctomb.o
         6          0          0          0          0          0   _printf_x.o
        10          0          0          0          0         68   _sputc.o
       158          0          0          0          0         92   _strtoul.o
        64          0          0          0          0         92   _wcrtomb.o
        26          0          0          0          0         80   atoi.o
       228          4        148          0          0         96   bigflt0.o
      1936        128          0          0          0        672   btod.o
        36          4          0          0          0         76   c89vsprintf.o
        18          0          0          0          0         80   exit.o
         8          0          0          0          0         68   ferror.o
         6          0          0          0          0        152   heapauxi.o
        44         10        272          0          0         76   lc_ctype_c.o
        44         10         28          0          0         76   lc_numeric_c.o
         2          0          0          0          0          0   libinit.o
        30          0          0          0          0          0   libinit2.o
         2          0          0          0          0          0   libshutdown.o
         2          0          0          0          0          0   libshutdown2.o
         8          4          0          0         96         68   libspace.o
       138          0          0          0          0         80   lludiv10.o
        88          0          0          0          0         76   memcmp.o
        16          4          0          0          0         76   rt_ctype_table.o
         8          4          0          0          0         68   rt_errno_addr_intlibspace.o
         8          4          0          0          0         68   rt_locale_intlibspace.o
        78          0          0          0          0         80   rt_memclr_w.o
       138          0          0          0          0         68   rt_memcpy_v6.o
       100          0          0          0          0         80   rt_memcpy_w.o
         2          0          0          0          0          0   rtexit.o
        10          0          0          0          0          0   rtexit2.o
       128          0          0          0          0         68   strcmpv7m.o
        72          0          0          0          0         80   strcpy.o
        62          0          0          0          0         76   strlen.o
        36          0          0          0          0         80   strstr.o
       112          0          0          0          0         88   strtol.o
        74          0          0          0          0         80   sys_stackheap_outer.o
         2          0          0          0          0         68   use_no_semi.o
         2          0          0          0          0         68   use_no_semi_2.o
       804         16          0          0          0        272   daddsub_clz.o
        90          4          0          0          0         92   dfixu.o
        38          0          0          0          0         68   dflt_clz.o
       340         12          0          0          0        104   dmul.o
       156          4          0          0          0         92   dnaninf.o
        12          0          0          0          0         68   dretinf.o
         4          0          0          0          0         68   printf1.o
         0          0          0          0          0          0   usenofp.o
        40          0          0          0          0         68   fpclassify.o

    ----------------------------------------------------------------------
      8432        308        515          0         96       5876   Library Totals
        14          0          2          0          0          0   (incl. Padding)

    ----------------------------------------------------------------------

      Code (inc. data)   RO Data    RW Data    ZI Data      Debug   Library Name

      6934        272        513          0         96       5044   c_w.l
      1444         36          0          0          0        764   fz_ws.l
        40          0          0          0          0         68   m_ws.l

    ----------------------------------------------------------------------
      8432        308        515          0         96       5876   Library Totals

    ----------------------------------------------------------------------

==============================================================================


      Code (inc. data)   RO Data    RW Data    ZI Data      Debug   

     27936       1748       2004        152      19368     606189   Grand Totals
     27936       1748       2004        152      19368     606189   ELF Image Totals
     27936       1748       2004        152          0          0   ROM Totals

==============================================================================

    Total RO  Size (Code + RO Data)                29940 (  29.24kB)
    Total RW  Size (RW Data + ZI Data)             19520 (  19.06kB)
    Total ROM Size (Code + RO Data + RW Data)      30092 (  29.39kB)

==============================================================================

